:020000021000EC
:108000000040002039810100798101007B8101005D
:108010000000000000000000000000000000000060
:108020000000000000000000000000007D81010051
:1080300000000000000000007F810100818101003C
:10804000858101008781010089810100DDA3010094
:10805000EDA30100000000008F810100918101006B
:1080600093810100958101009781010099810100B0
:108070009B8101009D8101009F810100A181010080
:10808000A3810100A58D0100A7810100000000006F
:10809000658E0100AB81010035A50100AF810100B3
:1080A000B1810100B3810100000000000000000068
:1080B00000000000000000000000000000000000C0
:1080C000164B002B00D1144B9D46402292029A1A67
:1080D000924600218B460F461348144A121A04F0A8
:1080E000CDFA0F4B002B00D098470E4B002B00D041
:1080F00098470020002104000D000D48002802D000
:108100000C4804F0C7FB04F051FA2000290000F0ED
:10811000B5FA04F03BFAC046000008000040002019
:10812000000000000000000068240020B9290020A1
:1081300095C80100A5C801000948026803210A4347
:1081400002600849084A094B9B1A05DD00240859BA
:10815000105104349C42FADB05488047054800472B
:10816000240500402CF40100002000206824002099
:10817000B5810100C1800100FEE7FEE7FEE7FEE7F2
:10818000FEE7FEE7FEE7FEE7FEE7FEE7FEE7FEE7C7
:10819000FEE7FEE7FEE7FEE7FEE7FEE7FEE7FEE7B7
:1081A000FEE7FEE7FEE7FEE7FEE7FEE7FEE7FEE7A7
:1081B000FEE7FEE71C4910B50B68DBB2012B0FD1BF
:1081C0001A4B1B681B070BD1194BE0241A68F023CC
:1081D0001000184022421BD1164A12681A421AD0C7
:1081E0000B68DBB2012B12D1104A126812070ED1B4
:1081F000F0210F4A12680A40402A08D10D4A12683D
:108200000A4204D18021C122C905D2008B5010BD81
:108210003028E1D0E4E7084B084A1A608022084B76
:1082200012021A60DCE7C046E00F00F0E40F00F035
:10823000E80F00F0EC0F00F004050040DFFF07C07E
:10824000186C004010B5024800F0B6FB10BDC046E7
:108250006D820100AF2010B5800001F0F1FC0248F2
:1082600000F0AAFB10BDC0466D82010010B5044BA2
:108270000212987003485A7000F0B8FB10BDC04657
:10828000682400208982010010B5044B0212187185
:108290000348DA7000F0C4FB10BDC046682400201B
:1082A000A582010010B5044B0212987103485A715F
:1082B00000F0D0FB10BDC04668240020C182010040
:1082C000F0B5BF4C89B00312E371207200F0DCFB03
:1082D000000A607200F0D8FBA07200F0A9FC000A4E
:1082E000E07200F0A5FC2379E2781B0213435BBA2D
:1082F0009AB20092B34A20731380A37962791B0269
:1083000013435BBA9AB20192AF4AC0B21380237A88
:10831000E2791B021343AD4A5BBA13809DB2A37A84
:10832000627A1B021343AA4A5BBA1380E37AA94F0D
:108330001B021843A84BA94E18800023019A3B60EA
:108340003360009B934200D226E1AB4200D2AEE004
:10835000280003F06DFC0290019803F069FC039083
:10836000009803F065FC019BAB4200D298E00399B2
:1083700002F026FF02993860039802F021FF306076
:10838000944B964F1B683D68181C291C029302F001
:108390005BFD934E002800D1C5E00298291C02F035
:1083A0000FFF3060A27BFF2A04D08E49CB78FF2BD1
:1083B00000D0BBE00022637BA27301336373894B5F
:1083C000DA709A7801329A70009B019A854D934237
:1083D00018D37E4B009A1B88934213D87D4B1868A4
:1083E00003F0E0FF804A814B02F0F4FC002809D042
:1083F000386803F0D7FF7D4B7B4A02F0D7FC00239F
:10840000002813D1306803F0CDFF794A794B06007C
:108410000F0002F0CBFC002800D18CE0FA236E4A5A
:10842000DB0012889A4200D985E011236B706B78CB
:1084300005AE442B00D08FE06F4D133B681C21002C
:108440000F222B7004F0D6F8B8231124B560322720
:108450000A259B003380B480200001F0DBFB38004C
:1084600001F0EEFB200001F0D5FB013D380001F0EA
:10847000E7FB002DF0D1300002F05CFC112001F090
:10848000B7FBFA20800001F0DBFB112001F0BAFB02
:10849000A02100228902594800F03AFF09B0F0BD3E
:1084A000029902F08DFE03993860029865E7019BFE
:1084B000AB422BD3009B019A934223D8280003F0B0
:1084C000B7FB051C019803F0B3FB291C02F078FEF2
:1084D0003860009803F0ACFB011C281C4DE7009BA2
:1084E000AB42EBD9009803F0A3FB0290019803F094
:1084F0009FFB029902F064FE3860280003F098FBAD
:10850000011CD2E7019BAB4200D939E7009803F088
:108510008FFB0290280003F08BFB029902F050FEC3
:1085200038600198EAE70299281C38E701320133E4
:10853000A273CB7048E72E4A314B3000390002F06D
:1085400035FC002806D0244A2E4B12889A4201D9C5
:1085500022236BE7442369E732232B4C29000522B1
:108560002A48237004F046F8B8239B003380062382
:10857000B46011250A24B380280001F04BFB32209F
:1085800001F05EFB280001F045FB013CFA2001F000
:1085900057FB002CF0D16EE7019BAB429FD2009BB2
:1085A000AB4200D9ECE6019803F042FB02902800B0
:1085B00003F03EFB029902F003FE386000989DE74D
:1085C00068240020722900207029002060290020E2
:1085D0007829002074290020622900205C290020CD
:1085E0006C290020982400209A9999999999F13F33
:1085F000333333333333F73F4C29002078240020C2
:108600003333FB3FCF070000642900206529002099
:1086100010B5034800F050F9024800F063F910BDAE
:10862000102000202986010010B5044BC0B218703C
:10863000034B1870034800F06FF910BD6824002048
:10864000982400204986010010B5024800F078F90E
:1086500010BDC0465986010010B5024800F084F9EB
:1086600010BDC0466986010010B5032001F0E8FA8C
:10867000014800F08DF910BD558201001FB500249E
:10868000112001F0A7FA112001F0BCFA2D4B1120A6
:108690005C739C732C4B9C70DC7001F0A9FAFA207F
:1086A000800001F0CDFA294802F0FCFA112001F017
:1086B000A9FAFA20800001F0C3FA112001F098FA1B
:1086C000FA20800001F0BCFA1D230193013B0093C6
:1086D000CC235B046A4602930323694613731C4848
:1086E0001C4B082201F0FEFFA04203D02200210013
:1086F00002F0A4F8112001F085FAFA20800001F0C0
:108700009FFA112001F074FAFA20800001F098FA23
:10871000114A0021114800F0E3FD114A00211148DF
:1087200000F0DEFD112001F06DFAFA20800001F06A
:1087300087FAA421002249000B4800F0E9FD02F06D
:10874000A3FAFCE7682400209824002000200020E1
:10875000102000209C24002011860100ACF00100B4
:1087600045820100A8F00100C0240020404B10B554
:108770001878013813281AD802F0E4FA0A0F1A1CE4
:1087800024262A383C4145474B4D5B5D65676F7138
:1087900002221A70212100221EE000221A70354B9D
:1087A0001B68934203D00020334A1056984710BDEF
:1087B0000422EEE700221A70304B1B689342F6D079
:1087C0009847F4E70622E4E700221A702C4BF4E7FE
:1087D0000822A4211A7000222A4800F099FD0028DE
:1087E000E5D00022110002F029F8E0E700221A701B
:1087F000254BE2E70A2225491A700022ECE7002205
:108800001A70234BD9E70C22C3E700221A70214BC0
:10881000D3E70E22BDE700221A701F4B1F491A68CA
:10882000002AC4D04B7808781B02184300B2904746
:10883000BDE71022ADE700221A70194B19491A68DA
:10884000002AEFD1B3E71222A3E700221A70164BD9
:1088500016491A68002AE5D1A9E7142299E70022EF
:108860001A70134B1A68002AA1D01249DAE7C046E1
:1088700014250020EC240020382500200C250020A1
:108880000825002018250020042500209A59000002
:10889000E024002010250020F4240020E6240020FD
:1088A000FC24002000250020F8240020E8240020DB
:1088B000F0240020E4240020074B10B5074A18607C
:1088C0000021074800F00CFD002803D00022110011
:1088D00001F0B4FF10BDC0463C2500206D870100AB
:1088E000A0F101000122084B10B51860074B0849A0
:1088F0001A70084B186801F011FF002803D00022FD
:10890000110001F09BFF10BDEC2400201425002075
:1089100070F101003C2500200322054B10B51860C2
:10892000044B05491A70054B186801F0F7FE10BD9D
:108930000C2500201425002090F101003C2500208A
:108940000522054B10B51860044B05491A70054BFC
:10895000186801F0E3FE10BD082500201425002052
:1089600080F101003C2500200722054B10B518605E
:10897000044B05491A70054B186801F0CFFE10BD75
:10898000042500201425002060F101003C25002072
:108990000922054B10B51860044B05491A70054BA8
:1089A000186801F0BBFE10BDE02400201425002053
:1089B00050F101003C2500200D22084B10B5186035
:1089C000074B08491A70084B186801F0A7FE0028E9
:1089D00003D00022110001F031FF10BDF42400206B
:1089E00014250020A4F101003C2500200F22084B93
:1089F00010B51860074B08491A70084B186801F049
:108A00008DFE002803D00022110001F017FF10BDD9
:108A1000FC24002014250020B4F101003C25002096
:108A20001122084B10B51860074B08491A70084B03
:108A3000186801F073FE002803D00022110001F035
:108A4000FDFE10BDF824002014250020C4F1010013
:108A50003C2500201322084B10B51860074B08492D
:108A60001A70084B186801F059FE002803D0002244
:108A7000110001F0E3FE10BDF024002014250020B9
:108A8000D4F101003C250020F7B5564A5378107800
:108A90001B02184303F082F8534A061C53781078DF
:108AA0001B02184303F07AF8504A051C53781078DB
:108AB0001B02184303F072F84D49041C301C02F0ED
:108AC00057FD4C49071C281C02F052FD011C381CA4
:108AD00002F0DCF94849071C201C02F049FD011C8A
:108AE000381C02F0D3F94549071C301C02F040FD48
:108AF00043490190281C02F03BFD011C019802F043
:108B0000C5F940490190201C02F032FD011C01987A
:108B100002F0BCF93C490190301C02F029FD3B49B0
:108B2000061C281C02F024FD011C301C02F0AEF9CA
:108B30003749051C201C02F01BFD011C281C02F0FB
:108B4000A5F90199041C381C02F0A0F9011C201C95
:108B500002F09CF9041C011C381C02F031FB2D4969
:108B600002F038FE211C051C019802F029FB011CB3
:108B7000294802F02FFE011C281C02F021FB019065
:108B800003F010FC0022254B0D00040003F022FF2F
:108B900022002B0006000F002000290003F090F9AE
:108BA00003F052FC1E4902F0E3FC3900041C3000C3
:108BB00003F04AFC1B4902F0DBFC011C201C02F004
:108BC00065F91949041C019802F0D2FC011C201C13
:108BD00002F05CF9154902F059F902F03FF980B250
:108BE000FEBDC04600250020E8240020E42400202B
:108BF000683F12BE7F4DC63F49D774BFD639A6BE67
:108C00000708CA3F745E3BBFDD982EBF904E453FBC
:108C1000BD35103FE7FBA93E5B423E3E00000840E9
:108C200000505C450080E043663AD545A482AC45DF
:108C300010B5164A537810781B02184302F0AEFFA5
:108C4000134902F095FC134A041C537810781B0258
:108C5000184302F0A3FF104902F08AFC011C201CFB
:108C600002F014F90D4A041C537810781B021843C3
:108C700002F094FF0A4902F07BFC011C201C02F068
:108C800005F902F0EBF880B210BDC04600250020C7
:108C9000D639A6BEE82400200708CA3FE4240020F5
:108CA000745E3BBF8022194B9202DA67D221802288
:108CB000174B520289005A5040395A5001212F2235
:108CC000596010000138C046C046C046C046C04684
:108CD000C046C046C046C046C046C046C046F1D1A8
:108CE000996000230B4910000B600138C046C04654
:108CF000C046C046C046C046C046C046C046C04644
:108D0000C046C046F1D1044A1370704704E100E048
:108D100000100140542500204525002010B543785F
:108D2000020001338078DBB2984200D1002314782E
:108D300000209C4205D00B70537818304343506894
:108D4000C01810BD144B02205B68DB05DB0D1CD086
:108D5000103B5AB2DBB21900013001408140002AB9
:108D600014DA0F221340083B9B080C4A9B009B1807
:108D70005B68CB409B090340DBB20020012B04D091
:108D8000033B1800431E9841013070479208C032DF
:108D9000034B9200D358ECE700ED00E018ED00E043
:108DA00000E100E0F8B50024244B5C649C64DC64C2
:108DB0001C655C609C60224B1968A14235D0214B38
:108DC000214AD558214B1B68ED1A2D022D0A0B683C
:108DD000AB4217D8ED1AE4180B7CCF69002B0FD0EB
:108DE00000261B4B0E741A684B698969B2421FD06A
:108DF00018009047B04203D03200310001F01EFD50
:108E0000002F13D1134B144A197813788B4204D1D5
:108E10000133DBB2022B0ED0137013780F4A9B0084
:108E20009C5080220E4B52035A60F8BD3900CEE7A9
:108E300008009847E4E70023EEE7C046FC10014035
:108E40005C2500200405000000100140542500208E
:108E500040250020502500205125002048250020D5
:108E6000FCE100E0F0B5AD4AAD491368AD488DB006
:108E7000059304780B7800279C4200D1C7E00133AA
:108E8000DBB2022B00D1C0E00B700B78A6499B002F
:108E90005F58059BDB191B021B0A1360012300931B
:108EA00000250120A14B09951B680693A04B1B7858
:108EB0000193A04B019A1B6802920793974B1B6882
:108EC00008939D4B1B780A93069B029A013AD2B2F3
:108ED0000292FF2A00D09CE0099A002A05D0964A07
:108EE0000A9911708D4A08991160904A002D00D09E
:108EF00013601368009A002A00D0DFE0069A00256C
:108F0000D31A5A1E9341DBB20093884B1B6804931B
:108F1000894B049A1B780693804B1B6802930023AD
:108F20000393019B013BDBB20193FF2B00D0CAE00E
:108F300003997E4B002900D01A601B68049A9A425C
:108F400003D1009A002A00D15AE0002B00D140E161
:108F50007A4A7B4C029915597A4E691A1B680902A4
:108F60003078090A0093033100281FD18020D127CF
:108F70004002BF00D051403FD051C02380277248EB
:108F8000BF025B00C750076001272F201760013820
:108F9000C046C046C046C046C046C046C046C046A1
:108FA000C046C046C046C046F1D13770009B8B42D8
:108FB00000D20B00A8200299C0005B181B021B0AFC
:108FC00013501159491B0902090A5D1B2D02033177
:108FD0002D0AA94214D9135913502F200138C04625
:108FE000C046C046C046C046C046C046C046C04651
:108FF000C046C046C046F1D18022544B92025A600E
:1090000000224D4B1A700DB0F0BD0F703DE7009778
:1090100046E7029AD100079A5218039203991278F0
:109020004C780B940B998A4200D14EE7182403998F
:1090300054434E68013234198E78D2B2964200D130
:1090400000222678022E08D0032EEBD1002BE9D087
:10905000002105001974DB69F8E71E009C4664686E
:109060000494002EDED00499F469B14200D1B3E03B
:10907000B4462600F5E71868B84206D9002A01D0A0
:109080002A4A1360C01B18603FE73F1A0918D868C6
:109090001C60DE69002807D0DD611D00059A98601C
:1090A00052181202120A5A603300009A002BE2D1C1
:1090B000002A00D129E71D4A136026E70022150087
:1090C00011001400F2E70026019BD800079B181836
:1090D000002D3DD144780378A34200D121E7182127
:1090E00059434768013379188778DBB203709F4290
:1090F00000D106700B78012BEDD14B681F7C002F3F
:10910000E9D18C685C60CC689C600C694969DC6062
:109110009961069900291DD05F601BE0542500204D
:109120005025002051250020482500205C250020E6
:109130005825002060250020442500200010014013
:10914000040500004525002000E100E0FCE100E00E
:109150002B00ED695968029C05910C1B2A492402D9
:10916000240A9F688C4212D8E4191C6001215E60B9
:109170009E601974DE61002A06D01C6811688C425A
:1091800024D80C1B1460DA61012203921CE00299BE
:10919000059C091B0902090AB94202D27F1A1F6005
:1091A000E4E71E60E2E7E41BCF698C46002F07D09E
:1091B00039000F68A742F6D33F1B0F600F006146CE
:1091C0001C60DF61CB6113001A0081E79446110037
:1091D000EFE7FFF767FD13E70499614509D1DB6904
:1091E0000500002B05D1094DA860050008930990E2
:1091F0000A9004990E686146CC61002C00D111E7F9
:1092000021688E1926600DE7FEFF7F0000100140E7
:10921000F0B50327150085B0029001910393140067
:109220003D400720002D03D1224E002A02D132609A
:1092300005B0F0BDFFF736FD1F4B039A01991A6088
:109240001E4B18221F70230018334A431900346044
:109250000198636025706570A07008349B188C427B
:10926000F6D18020C022C524FF21154B40031D608C
:10927000144B52001D70144BA4001D70134B9850DA
:109280001A598A431100C0220A431A51A1221860B8
:1092900002990F48D2008150043C1A590D491140DF
:1092A000C02212020A431A510B4BC2580B4B00202A
:1092B0001A60BDE7602500204025002058250020C9
:1092C0005C250020502500205125002000E100E011
:1092D00000100140FF00FFFF04050000542500209E
:1092E0000A4B10B51C680823002C0CD0013B002A47
:1092F00009D0002807D000680133047C002C02D17B
:10930000230041744261180010BDC0466025002052
:10931000F0B51C4B85B01E6804000D0001920820BA
:10932000002E2DD0002C2BD00138042928D96369B8
:109330000130002B24D0637C0F00012B00D00027CC
:10934000FFF700FDC00002AB3618D91D3000FFF753
:10935000E5FC03000420002B12D001220A491A70F8
:109360000A4A00208A585C609A60019ADD605A615E
:1093700080221F6102ABDB7952037370044B5A6089
:1093800005B0F0BD6025002000100140040500007C
:10939000FCE100E0134BF7B51C6805000823002C26
:1093A0001DD000281BD04269002A18D00026067460
:1093B000FFF7C8FC6B46C000DF1D241839002000F1
:1093C000FFF7ACFC0423B04209D08022023B0370BB
:1093D0003B7845606370044B52035A6033001800B9
:1093E000FEBDC04660250020FCE100E071DF704753
:1093F00072DF704779DF70477DDF704765DF704748
:10940000F0B5002506002F0089B001930EAB10CBFC
:1094100004911B8803920593238802933388BB42EF
:109420000EDC0020854209D02388029A013B9B1A5A
:109430009BB2FF2B3ED8019A0299535409B0F0BD5C
:109440007368B9005918042207A803F0D3F806ABD3
:109450000022D91C07A8FFF7D1FF0028EED106ABE8
:10946000DB78039A934223D16942694123884900FA
:109470009A18521805998A421CDC002D08D1013334
:10948000019A04999BB22380D1542388013323800D
:10949000019B228807A89A1806ABDD1C2900FFF75C
:1094A000ADFF0028CAD12B78012522889B18238084
:1094B0000137B3E70C20C1E7F0B51D0085B00AAB5A
:1094C00040CB03921F880222019700962B000400D4
:1094D000FFF796FF002807D1019700962B00102276
:1094E00003992000FFF78CFF05B0F0BDF0B513889D
:1094F00087B0029300231380436B07000D00140014
:10950000002B15D0029A022A01D80C2086E11A7885
:1095100002230B701121238801339BB22380E9546D
:10952000238801339BB22380EA54238801332380AC
:109530003A6B002A1CD0238802981900123181420C
:10954000E3D81121E9542388013901339BB22380E8
:10955000E9542388013323801300013A0F3318782C
:109560002188013B68542188013121809342F6D142
:109570003B002E331878002821D023880299DA1C6A
:109580008A42C2D802221C21EA54238801339BB2AA
:109590002380E9542388411E01339BB22380072096
:1095A000032900D93AE1080001F0D6FB04002501A7
:1095B000050027010022EA542388013323803B0061
:1095C0002D331B78002B2DD02388029A09330C20D1
:1095D000934200D922E104AE3000FFF707FF0028D4
:1095E00000D01BE1082209212388EA542388133282
:1095F00001339BB22380EA54208802AB013080B251
:109600002080153AC918281802F0F4FF2388327810
:1096100006339BB22380002A00D0F0E0EA5423886E
:1096200001332380BB78002B22D02388029A043395
:109630000C20934200D9F1E004AE3000FFF7DAFECF
:10964000002800D0EAE003222388EA542388163257
:1096500001339BB22380EA542388328801339BB2C2
:109660002380EB181A70120A5A7023880233238061
:10967000FA78002A15D023880298D91C814200D993
:1096800043E70221E9542388013901339BB2238047
:10969000E95423885B189BB22380EA5423885B1823
:1096A00023807A68002A17D023880298D91C814227
:1096B00000D92AE702211278E954238808310133BE
:1096C0009BB22380E954238852B201339BB223809A
:1096D000EA542388013323803B89002B00D090E09B
:1096E0003B8A002B0CD03800029B00940193072288
:1096F0002B0003211030FFF7DFFE002800D08DE0A3
:109700003B8B002B0CD03800029B00940193152258
:109710002B0014211830FFF7CFFE002800D07DE089
:109720003B6A002B00D07BE07E6A002E2ED0B388EF
:109730002188981C8A1C12189446029A944500D9D4
:10974000E3E6FE2800D9E0E6FF2203336B542388CA
:1097500001339BB22380EA54238801339BB22380D8
:109760003288EB181A70120A5A702088023080B2C0
:109770002080B288002A09D0B168002959D0281861
:1097800002F038FF2388B2889B1823803B002C33DB
:109790001B78002B00D083E03B78181E3ED03A881F
:1097A0000720012A3AD022880299901C884200D9C9
:1097B000ABE6012B06D17B78029902339B189942C4
:1097C00000D2A2E6029E02AB023EB61AB6B228183A
:1097D00004A91E81FFF710FE00281FD13B78022B41
:1097E00000D09AE002AB1B890922B34200D89EE068
:1097F00002AB1E819AE00122DDE60322DBE60122B4
:109800000CE73800029B0094019306222B000221F2
:109810000830FFF751FE002800D161E707B0F0BD26
:1098200026880299B21D8A4200D96EE61988052958
:1098300001D80720F2E746480A1892B20392454A37
:109840009446039A6245F4D95A88052AF1D910182A
:1098500080B26045EDD94048814203D0824201D0B8
:109860009142E6D805221221AA552288013292B2ED
:109870002280A9542288013292B222801988AA1823
:109880001170090A51702288023292B222805988DE
:10989000AA181170090A517023880233238043E704
:1098A000BB6A002BC5D0002303933B002C331B78ED
:1098B000039A934200D86FE70C26039B5E43BB6A72
:1098C0009E19B3889A1CFE2A00D91EE6228803330B
:1098D000AB541622238801339BB22380EA54238899
:1098E00001339BB223803288EB181A70120A5A7027
:1098F0002088023080B22080B288002A09D0B16866
:10990000002996D0281802F075FE2388B2889B188B
:109910002380039B0133DBB2C6E7012B00D067E74E
:109920007B789E4200D263E702AA1381082202AB31
:109930001989FE2900D9E8E523880131E9542388F3
:1099400001339BB22380EA5423885918218065E7AC
:109950007FF3FFFF7DF30000FFFF0000F0B593B041
:109960006A461F2301AE971D0D0033803B800028FF
:109970001FD0C3785B0702D4072013B0F0BD3200BC
:1099800002A9FFF7B3FD02AC0028F6D1002D13D0D9
:10999000EB78002BF0D13A000AA92800FFF7A6FDCA
:1099A0000AAA0028E9D13B7831782000FFF720FD92
:1099B000E3E730800400E9E73D802A00F3E775DF44
:1099C000704776DF70477ADF70477BDF70470000B3
:1099D000164B13B51888164B984211D0154A164CE1
:1099E00013780133DBB21370217B994209D31349F9
:1099F000FFF7E5FF002803D0A369002B00D09847AC
:109A000013BD00231370237C002B08D03B21FFF7EC
:109A1000D8FF002803D0A369002B00D098476369C2
:109A2000002BEDD0002201A80270E8E76625002097
:109A3000FFFF0000B425002068250020AC25002091
:109A400037B5184B184A5B881188184C184D994245
:109A500008D852889A4205D36369002B1ED100238F
:109A60002B7037BD2B78002B06D06369002BF6D006
:109A7000002201A802700DE00E4B1B78002B0BD1C9
:109A8000616800220C48FFF743FC0028E7D0A36977
:109A9000002BE4D09847E2E7A168F2E701A8012291
:109AA000E8E7C046A4250020AC250020682500205A
:109AB00064250020B42500208425002014490200DC
:109AC0000B0070B532CA32C332CA32C31268114CAD
:109AD0001A600022104B01681A70914214D00832AB
:109AE000200002F087FD2000FFF76DFF00280AD15B
:109AF00001220021094B52421A80094B094A0A48A7
:109B00001970FFF7EDFB70BD2000FFF75EFFEDE77A
:109B100068250020AC250020642500206625002053
:109B2000B4250020D1990100E4F10100038810B5AB
:109B3000112B2DD002D8102B17D010BD122B39D0DD
:109B4000502BFAD11E4CC188E2899142F5D1C38BCA
:109B5000022BF2D10130C37FDB0716D41948FFF77F
:109B600019FC0028E9D0A36920E001008288164B87
:109B700016311A801548082202F03CFD0022144BD1
:109B80001A700F4BDB899342D7D1FFF759FFD4E707
:109B900001220D4B52421A8000220D4B09481A70C7
:109BA000FFF7F8FB0028C8D0054B9B69002BC4D0F9
:109BB0009847C2E7811D0822044802F01BFDE4E734
:109BC000682500208425002066250020A42500208B
:109BD000B42500200300A0220321C133FF33D205A6
:109BE0009B0099500123A1218340C9005350704725
:109BF0000123A0218340024AC9058B507047C0460B
:109C00000C0500000123A021A1228340C905D20038
:109C10008B507047A02310B50124074ADB059A58E2
:109C20002100C2408140224203D1A122D20099509A
:109C300010BD024AFBE7C046040500000C05000009
:109C400082B00190019B002B01D102B07047019BB3
:109C50000848013B01930138C046C046C046C04693
:109C6000C046C046C046C046C046C046C046C046C4
:109C7000F1D1E7E7E703000030B5FF2503232C000F
:109C8000C2B21340DB009C4089012940E443994063
:109C9000002814DA0F231340083B0E489B089B0052
:109CA0001B18D86904402143D9611F23C0211A40E1
:109CB0001E3B9340084A49005350136030BDC025F5
:109CC000054B80088000C018AD0043591C4021435B
:109CD0004151EAE700ED00E000E100E036DF7047C7
:109CE00037DF7047F7B518224579124C6A43A2183E
:109CF0005278114B9200D758104B0191D258002343
:109D00009F4214D0082149428C46160008329444E0
:109D1000614609788C4601998C4509D118236B431B
:109D20007278E3185A707368002B00D09847F7BD1B
:109D30000133E5E7B825002050F20100A4F201004C
:109D400080220321F8B50600457900689200835807
:109D50001C4C8B43835018236B43E318D9899F898C
:109D600001310122B9421BD15979002918D104329D
:109D7000FF325A820200FC329160134AA9008A58CD
:109D8000002A08D0C22259699200815002225A61E9
:109D9000C1239B00C25004213000FFF7A3FF022221
:109DA000802133688900585802435A50182255437D
:109DB0006419227CE1399B180122FF3921741A6051
:109DC000F8BDC046B8250020E825002018234179B9
:109DD00070B54B43104C0268E318B124DD79E40000
:109DE0001551842501246D005D8215001462002444
:109DF000FC351C74EC60094C89000959002908D015
:109E0000C2215C698900545004215961C1239B001F
:109E1000D150FFF795FF70BDB8250020E825002040
:109E200010B5FFF78DFF10BD1822A321437910B59F
:109E30005343084A0468D218C900D389615894680A
:109E4000E15401339BB2D38192899A4201D9FFF741
:109E500077FF10BDB82500201823427910B55A436A
:109E6000054B01689B18DA899B689A5C034BCA50C2
:109E7000FFF766FF10BDC046B82500201C05000096
:109E80001823417970B54B43114C0268E318B12493
:109E9000DD79E40015510124146207341C74153473
:109EA000FF345C8214000025FC342562094C8900D3
:109EB0000959A94208D0C2215C6989005450802107
:109EC0005961C1239B00D150FFF7C6FF70BDC0464A
:109ED000B8250020E82500201822437910B5534307
:109EE000054AD218D38901339BB2D38192899A4211
:109EF00001D9FFF7B1FF10BDB8250020182210B519
:109F000041790E4B4A439A1882235B0053820368BF
:109F100000241800FC308460094889000958A142D7
:109F200008D0C22150698900585002215161C122D4
:109F30009200995001221A625A6110BDB825002082
:109F4000E8250020182342795A43024B9B1801222E
:109F50009A717047B8250020F0B589B003920022AD
:109F600004930EAB1B78029105930FAB1B7807008F
:109F7000019306AB4679DA715B4B5B68DB05DB0D61
:109F8000934200D186E0103B58B2DBB21900033295
:109F900011409140002877DA0F200340083B9B08CE
:109FA00052489B001B185B68CB409B091A40D4B2F7
:109FB000012A78D006ABD81DFFF790FE02286BD19E
:109FC00072B6182272434A4B9B189D78EDB2002D51
:109FD00000D084E001229A7094420FD062B606ABA2
:109FE000D879FFF77DFE022302009A4303D00022B6
:109FF000110000F023FC1120002D68D1182300244B
:10A0000001215E433A4B38009D19029BEC81EB71B4
:10A01000049BAC71AB81039BAB60059B6B71019B97
:10A020002B715940FFF75EFE7B79324A9B009A58AC
:10A030002000A2424BD12B79019259424B4102336D
:10A0400002931823049304997A793B684A43284978
:10A050001D008A18518A284A002094465918FC3558
:10A060000A6801300392AA6A541EA2418445A441A1
:10A0700064422243039C002C17D1002AF0D0019A9D
:10A08000AA620522029212E08008C0301B4B8000B9
:10A09000C35889E704248DE7002892D000221100DC
:10A0A00000F0CCFB8DE714008BE7002AE7D1104AC3
:10A0B000380095196A8A02999B18019A1A60FFF76D
:10A0C00011FEA879002804D00320019BAB7009B0D1
:10A0D000F0BDEA89AB899A42B5D3A870F7E7012CA5
:10A0E00000D07BE71120F2E700ED00E018ED00E082
:10A0F000B8250020E8250020FE0F000000E100E068
:10A100001823F0B5020006004B43264C0F00E3185D
:10A11000598AFC327118906A0D68002187B09162EB
:10A1200005431162D16091608D4229D0053100282C
:10A1300003D119794B42594102311B4BBD00E858FC
:10A14000FFF7D0FD18235F43E419A179E7890029BF
:10A1500018D0002302AAA370023314491370A26816
:10A16000049701920392725872501A4200D102333E
:10A1700002AA13730E4B0F4AEB58A95802A898472E
:10A1800007B0F0BDA389BB42FAD81022A17002A883
:10A1900002F074FA237902AA1370A368049701935A
:10A1A0000393E7E7B8250020F0250020C404000051
:10A1B000E8250020F8250020F7B501904479182003
:10A1C0006043624D455D0820002D00D076E00029F7
:10A1D00002D15F48210141185E48A40022505E4A26
:10A1E000E020A350019A5D4B4F68E250A022D205B7
:10A1F0001400A4460B68C0009D00AD18584A584E84
:10A200002A50BA00944462461650012216009E401D
:10A210003300A126F600A3511300BB401F00634684
:10A22000A751504F2F501F5004200138C046C04640
:10A23000C046C046C046C046C046C046C046C046EE
:10A24000C046C046F1D1A0230025B446444CDB05EE
:10A25000A220C0004E681858F040434E10422ED045
:10A26000002D00D056E00868A0250300C133FF335D
:10A27000ED059B005C514A681300C133FF339B001E
:10A280005C51019B8D681B68384C1D511C3C18515A
:10A290009A51019B2F4A5B799B00D358002B05D024
:10A2A0000420019B097B1856FFF7E6FC019B012166
:10A2B0005A79182300205343244A9954FEBD1000B4
:10A2C0000F68B840985104200138C046C046C046C7
:10A2D000C046C046C046C046C046C046C046C0464E
:10A2E000C046F1D110000F68B8406746D85104202D
:10A2F0000138C046C046C046C046C046C046C046FB
:10A30000C046C046C046C046C046F1D10135092D01
:10A3100000D09DE7012318004A689040A022D20592
:10A32000905104200138C046C046C046C046C046D1
:10A33000C046C046C046C046C046C046C046F1D131
:10A3400048688340A120C00013508CE7B825002046
:10A35000E8F10100E8250020F8250020F025002084
:10A360000C0600000D0600000C050000240500008E
:10A37000016800220B00FC339A60DA601A629A626C
:10A3800040790B4B8200D358002B04D0C12380228C
:10A390009B009200CA50A0230522DB00CA50022174
:10A3A00013324243034BD1549B1800225A7070471A
:10A3B000E8250020B825002037B5012506AC247813
:10A3C00001950094FFF7C8FD3EBD37B5002506ACEA
:10A3D000247801950094FFF7BFFD3EBD10B5002124
:10A3E0000148FFF78DFE10BD0030004010B501217F
:10A3F0000148FFF785FE10BD004000402EDF70478A
:10A4000051DF704710DF704761DF704710B50800FB
:10A41000110000F01DFA10BDF0B5254B85B01B787A
:10A42000DBB20093002B18D0224E234F33685A42E0
:10A430005A41D2B201923A68002A14D1009C002BF2
:10A440000BD021E003983B6898472C0019E02800C6
:10A450003368984729E0002C05D005B0F0BD002CEA
:10A46000FBD1009C019403A8FFF7CAFF009C0500E4
:10A47000052806D00028E5D00022110000F0DEF902
:10A480000024019B002BE6D10C4B03A91B880B80F9
:10A490000B4B1D682800FFF7B7FF0528DFD0002809
:10A4A000D5D00022110000F0C9F9002CECD1D9E779
:10A4B0000C26002004260020102600200026002064
:10A4C0001426002070B504000720002913D08D0742
:10A4D00011D109480160094920000A80084A094948
:10A4E0001360FFF78FFF002805D10122064B1630BD
:10A4F0001A70FFF783FF70BD14260020002600208D
:10A50000082600200DA401000C2600200E230028A0
:10A5100002D0024B18600023180070470426002068
:10A520000E23002802D0024B186000231800704749
:10A5300010260020074B10B51B68002B07D098474A
:10A54000002803D00022110000F078F910BDFFF7B9
:10A5500063FFFBE70826002036DF704737DF7047D0
:10A56000104B04205B68DB05DB0D14D0103B5AB2A6
:10A57000DBB21900013801408140002A0CDA0F22B9
:10A580001340083B9B08084A9B009B185B68CB4024
:10A590009B091840C0B270479208C032034B92002A
:10A5A000D358F4E700ED00E018ED00E000E100E032
:10A5B0000300DA6810B512680800002A04D0DA68CF
:10A5C000DB6851681B68984710BD73B50126037A94
:10A5D000C268DB0094681030E4186579226823793A
:10A5E000A479690834400094354202D0FFF7EDFEAB
:10A5F00076BDFFF7E1FEFBE7F0B5040085B0019101
:10A60000002602ABDD1D2E70FFF7AAFF0700012810
:10A6100005D02800FFF7A0FF02281FD172B6019BCA
:10A62000002B02D1E368002B14D16379A179DBB24E
:10A6300000228B420AD021689A008A1801332179BE
:10A64000DBB21268994200D200236371E260E368D2
:10A65000002B0CD1012F08D105B0F0BD0028DED0B1
:10A660003200310000F0EAF8D9E7002602E0012FBD
:10A670000ED0012662B62878FFF770FF0222030091
:10A68000934303D00022110000F0D8F8002EE3D04D
:10A69000002320002372FFF798FF011EDCD020006A
:10A6A000FFF786FF01230193AAE7037810B50C009A
:10A6B000022B0ED00B7ACA680133127BDBB2002169
:10A6C0009A4207D923722000FFF77FFF011E01D1B4
:10A6D00010BD03212000FFF76BFF01212000FFF7D1
:10A6E0008BFFF5E7F7B506001036019204001F0056
:10A6F000094A03003000FFF75FFD051E09D1300055
:10A70000FFF736FE019B65712760A57123716572A5
:10A71000E5602800FEBDC046ABA60100F0B50027ED
:10A7200085B002ABDD1D040001912F70FFF718FF0B
:10A730000600012805D02800FFF70EFF022830D1BF
:10A7400072B6A3792179DBB28B4202D16279002AF9
:10A7500030D06279013A93422CD020689A00821856
:10A7600001330198DBB21060994200D20023A3713B
:10A77000012E0ED0002662B62878FFF7EFFE0223E6
:10A7800002009A4303D00022110000F057F8002E77
:10A7900004D100212000FFF72FFF0026300005B074
:10A7A000F0BD0028CDD03A00390000F047F8C8E7E6
:10A7B0001126F3E7012EFBD01126DCE770DF70478E
:10A7C00071DF704773DF704774DF704776DF704763
:10A7D00077DF704778DF70477ADF70477CDF70473C
:10A7E0007FDF704782DF7047A9DF704760DF704707
:10A7F0003CDF704748DF7047034B10B5002B01D09A
:10A8000000E000BFFEE7C046000000007047000007
:10A81000037810B5002B0CD1064B3B211888FFF7AD
:10A82000D5FF002805D0044B002B01D000E000BF6D
:10A83000FEE710BD9429002000000000034B10B576
:10A84000002B01D000E000BFFEE7C0460000000082
:10A85000034B10B5002B02D0024800E000BFFEE71A
:10A8600000000000EFBEADDE1FB51E4B02AC1B7832
:10A87000FF2B32D11C4B1B78FF2B2ED100236A46B5
:10A8800069461380194B1B681A788A70E522CA70D2
:10A890004D3A0A7128324A715B88154A934205D0B5
:10A8A00006220B701B0A4B70092006E02000FFF700
:10A8B00087FF6B4604220B20991C684401F09AFE26
:10A8C000002021002070FFF779FF002808D0094BF5
:10A8D000002B01D000E000BFFEE706220249E3E7BB
:10A8E0001FBDC046F9FF0300F8FF03004829002000
:10A8F000FFFF00000000000007B5002348221A49AE
:10A900000E20FFF7DFFD002805D0184B002B01D0EB
:10A9100000E000BFFEE701000822684601F0AEFE3D
:10A920006846FFF763FF002805D0104B002B01D0CD
:10A9300000E000BFFEE70E48FFF7E8FD002805D065
:10A940000A4B002B01D000E000BFFEE70948FFF7EB
:10A95000E7FD002805D0054B002B01D000E000BF2B
:10A96000FEE7FFF781FF07BD00290020000000007F
:10A97000F1AA01000DA8010037B50420FFF728FF58
:10A98000112301AC23700F4B1B685D68280001F098
:10A99000C3FE290082B22000FFF720FF002805D067
:10A9A000094B002B01D000E000BFFEE78020FFF73D
:10A9B00011FF002805D0044B002B01D000E000BFA0
:10A9C000FEE737BD482900200000000010B5054C07
:10A9D00018220021200001F051FE034B1B681B8947
:10A9E000238210BD7C2900204829002010B51C4B73
:10A9F0008CB01B6803A85A8902809B894380194B3D
:10AA00001B688380184B1B680193C380FFF7E4FE2B
:10AA1000002805D0154B002B01D000E000BFFEE759
:10AA200005AC01001422200001F028FE104B20008C
:10AA30001B6801936360F0231B03A360032323734C
:10AA40000C4B63610C4BA361FFF738F8002805D06D
:10AA5000064B002B01D000E000BFFEE70CB010BD9C
:10AA600048290020C0F20100B8F2010000000000F7
:10AA7000BCF2010011A80100F9A701007047000015
:10AA8000002310B5064A09211800FEF7C1FB002873
:10AA900005D0044B002B01D000E000BFFEE710BD45
:10AAA000182600200000000010B50748FFF78AFEB6
:10AAB000082302009A4305D0044B002B01D000E08C
:10AAC00000BFFEE710BDC0467C290020000000004A
:10AAD00010B5FFF779FE082302009A4305D0034B17
:10AAE000002B01D000E000BFFEE710BD0000000019
:10AAF000038870B50400192B00D19BE021D8112BDD
:10AB00005ED00BD8102B3ED0554B002B02D020002E
:10AB100000E000BF2000FFF709F870BD132B69D0DB
:10AB2000142BF1D14F4B188800231A001900FFF79E
:10AB300059FE0028E8D04C4B002B01D000E000BFAC
:10AB4000FEE7512B4FD00AD81B2B00D181E0502BB0
:10AB5000DAD1464B002BD7D000E000BFD4E7522B10
:10AB600058D0552BD0D18379002BCDD13D4B13211B
:10AB70001888FFF72BFE0028C6D03B4B002B01D0D6
:10AB800000E000BFFEE702228388364D2B80384B61
:10AB90001A70FFF789FF002328881A001900FFF7B1
:10ABA00023FE002805D0304B002B01D000E000BF71
:10ABB000FEE7304B002BA7D0200000E000BFA3E74A
:10ABC0000122284B52421A80FFF782FF0022284BB5
:10ABD0001A70FFF769FF284B002B00D194E7200083
:10ABE00000E000BF90E7254B002B00D18CE700E090
:10ABF00000BF89E71B4B224A188800231900FFF782
:10AC0000EFFD002800D17FE7174B002B01D000E0BB
:10AC100000BFFEE7134B188800231A001900FFF746
:10AC2000E3FD002800D16FE70F4B002B01D000E0BF
:10AC300000BFFEE78379002B00D065E7FFF7D8FD62
:10AC4000002800D160E7084B002B01D000E000BFD6
:10AC5000FEE70C4B002B00D156E700E000BF53E7A6
:10AC60000000000094290020000000000000000007
:10AC70007C2900200000000000000000000000000F
:10AC8000282000200000000010B5FFF7B3FD0028C9
:10AC900005D0034B002B01D000E000BFFEE710BD44
:10ACA00000000000094B10B51860FFF725FEFFF704
:10ACB00063FEFFF78BFEFFF7E1FEFFF7E1FEFFF714
:10ACC00095FE012302485B42038010BD4829002005
:10ACD00094290020F0B59DB007000E00150000215A
:10ACE000382268460EAC01F0C9FC38220021200051
:10ACF00001F0C4FC06236A46D370043B002F17D032
:10AD00001370002E03D001236A4605961382002D8E
:10AD100000D0099521006846FEF720FE002803D0E8
:10AD200000221100FFF78AFDFFF7BEFE1DB0F0BD47
:10AD30002370E6E7002110B502000800FFF7CAFF04
:10AD400010BD000002B4714649084900095C490081
:10AD50008E4402BC7047C04603B4714649084000A7
:10AD60004900095A49008E4403BC70478446101CB0
:10AD700062468C46191C634600E0C0461FB501F0D0
:10AD800037F8002801D40021C8421FBD10B500F0DB
:10AD90008FFF4042013010BD10B501F029F80028A6
:10ADA00001DB002010BD012010BDC04610B501F030
:10ADB0001FF8002801DD002010BD012010BDC04695
:10ADC00010B500F0B1FF002801DC002010BD01200B
:10ADD00010BDC04610B500F0A7FF002801DA002022
:10ADE00010BD012010BDC0468446081C6146FFE727
:10ADF0001FB500F06DFB002801D40021C8421FBD23
:10AE000010B500F0EFFA4042013010BD10B500F06F
:10AE10005FFB002801DB002010BD012010BDC046F3
:10AE200010B500F055FB002801DD002010BD012009
:10AE300010BDC04610B500F0FDFA002801DC00206E
:10AE400010BD012010BDC04610B500F0F3FA002877
:10AE500001DA002010BD012010BDC0469E2110B5B2
:10AE6000C905041CFFF7F0FF002803D1201C00F0E7
:10AE700075FE10BD9E21201CC90500F0ABFC00F042
:10AE80006DFE80231B069C466044F2E7F8B54746FA
:10AE9000CE4643025B0A4400C20F9C464800DD00D8
:10AEA0004B02240E5B0A000E80B5984626009146A0
:10AEB000C90FDB00271A8A4229D0002F15DD002890
:10AEC0004AD1002B00D095E0ED08FF2C00D188E09E
:10AED0006B025B0AE6B25B02F605580A3043D20702
:10AEE00010430CBC90469946F8BD002F00D087E077
:10AEF000601CC0B2012800DCB6E0EE1A720100D579
:10AF0000C5E0002E3DD1002200260023E3E7002FFC
:10AF100000DC96E000285DD0FF2C60D08022D204B7
:10AF200013431B2F00DDECE02022D21B18009340BE
:10AF3000F8405A1E93410343ED186B017BD5013451
:10AF4000FF2C00D1B7E0012207262A406B089A4D5A
:10AF50001D4015432E4029E0FF2CB5D08022D2049D
:10AF600013431B2F00DDB2E02022D21B19009340B7
:10AF7000F9405A1E93410B43ED1A6B015BD5AD01AD
:10AF8000AE09300001F0E4FA05388640844265DC01
:10AF9000041B330020200134E340041BA640751E2F
:10AFA000AE41334307261D0000241E4001224B46BC
:10AFB0001A40002E04D00F232B40042B00D0043560
:10AFC0006B0100D480E70134E6B2FF2C2FD1FF26BD
:10AFD000002380E7002B52D1FF2C00D074E70A0039
:10AFE000ED08002DF3D08023DB032B435B025B0ACB
:10AFF000FF2670E7013F002FBED0FF2CB1D163E7E1
:10B00000002C47D0FF2869D08024E4047A422543ED
:10B010001B2A00DDC5E02C002026D440B21A954042
:10B020006A1E954125435D1B04008946A5E7AB01D7
:10B030005B0A50E7002401224B461A406B07BAD145
:10B0400042E7002F3BD10134E0B201284ADDFF2C5A
:10B05000BDD00726ED186D082E40A7E70723574DF2
:10B06000241A35401E40A1E7002C1BD1002D6ED1C3
:10B07000002B00D19AE00A001D003C0024E7013FAC
:10B08000002F00D158E7FF2C00D04AE7A7E75E1B4E
:10B09000894676E7002D1CD10A00FF281FD0040046
:10B0A0001D0011E7002D5DD1002B17D18023002258
:10B0B000DB03FF260FE70A00FF2600230BE7002C27
:10B0C00021D1002D66D1FF28E9D11D0087E701239A
:10B0D00052E77A1CA7D0FA43FF2899D10A001D0035
:10B0E000FF24F1E6002E21D1002D4FD0002B4CD0B3
:10B0F000ED186B019ED5314B07362E4001241D40C3
:10B1000054E7012318E7FF28DFD08024E4047F42BE
:10B1100025431B2F4DDC2026F61B2C00B540FC40A0
:10B120006A1E95412543ED18040006E7002DCCD09A
:10B13000002B00D153E780216046C903084203D0A9
:10B140004046084200D11D000121114047E7002B75
:10B1500000D1B9E6EA1A500125D507265D1B2E401D
:10B16000894623E7FF24002B00D1ADE6802260460C
:10B17000D203104204D04046104201D11D0089463E
:10B1800001224B46FF241A409EE62B00DD080A00F0
:10B1900000249DE67A1CC6D0FF43FF28B9D11D00CC
:10B1A0001DE701253FE7151E00D044E700220023DC
:10B1B00091E60125B7E7C046FFFFFF7DFFFFFFFBDC
:10B1C000F8B557464E464546DE464402E0B54600D1
:10B1D0008846640A360EC70F002E63D0FF2E24D097
:10B1E0008023E400DB041C43002399469B467F3EFA
:10B1F000434642465D02D20F5B006D0A1B0E90462D
:10B20000924665D0FF2B55D080220021ED00D2045C
:10B210007F3B1543F61A43464A467B400F2A00D926
:10B220008DE06D48920082589746002C54D1082337
:10B230009946063BFF269B46DAE70025534602293E
:10B240001BD0032900D1BFE0012928D030007F3076
:10B25000002820DD6A0704D00F222A40042A00D0EB
:10B2600004352A0103D530005C4A80301540FE28A1
:10B2700003DCAC01640AC2B201E0FF2200246402D4
:10B28000D205600ADB07104318433CBC9046994640
:10B29000A246AB46F8BD0122101A1B287CDD002215
:10B2A0000024ECE7002C1DD104239946033B002623
:10B2B0009B469DE7FF3E002D20D1022143464A4692
:10B2C0007B400A430F2AD8D84548920082589746B7
:10B2D000002D19D10121F1E70C239946093BFF26E6
:10B2E0009B4685E7200001F033F97626431F9C40FA
:10B2F00000237642361A99469B4679E74A4603234D
:10B300001A439146032186E7280001F021F9431FE3
:10B3100036189D40763600217DE780240023E40323
:10B32000FF22ACE700258023DB031C4228D01D420E
:10B3300026D12B435C02640A4346FF229FE7620149
:10B340006C01A24224D21B210025013E01271000DE
:10B350006D005200002801DB944201D8121B3D43CE
:10B3600001390029F3D11400621E944125436DE791
:10B37000BA46594625005346022900D061E77CE7CA
:10B380008023DB031C436402640A3B00FF2276E750
:10B39000121B1A210125D9E79E362A00B5402C0040
:10B3A000C240651EAC411443620704D00F22224004
:10B3B000042A00D00434620103D4A401640A0022E8
:10B3C0005DE7012200245AE78024E4032C43640251
:10B3D000640AFF2253E7C046C4F20100FFFFFFF7F3
:10B3E00004F3010070B542004E024C0045026D0AA4
:10B3F000120EC30F760A240EC90FFF2A0FD0FF2C9E
:10B4000011D00120A24200D070BDB542FCD18B42C8
:10B410000DD0002AF8D12800451EA841F4E70120EC
:10B42000002DF1D1EBE70120002EEDD1E9E700205E
:10B43000EAE7C04670B54A004E02450244006D0A74
:10B44000240EC30F760A120EC90FFF2C15D0FF2A47
:10B450000ED0002C15D1002A01D1002E1CD0002DB9
:10B4600014D08B4227D00220013B1840013870BD18
:10B47000002EEED002204042F9E7002DFAD1FF2A3B
:10B480000ED0002A0ED1002EEDD00BE001230139A1
:10B49000994308000130EAE70020002DE7D0E2E7F9
:10B4A000002EE7D18B42DED1944205DD0221581EE9
:10B4B00008400138DBE70024A24204DCB542D2D8C0
:10B4C0000020B542D3D2581E012398430130CEE765
:10B4D00030B5420044024D02C30F4800640A120E08
:10B4E0006D0A000EC90FFF2A12D0FF280CD0002AC7
:10B4F00012D1002819D1002D17D1002C2BD00220F9
:10B50000013B1840013826E0002DF0D0022022E057
:10B51000002CFBD1FF281FD000281FD1002D1DD1EA
:10B520000220013B1840013815E0002C0ED08B4260
:10B53000E5D10022904204DCAC42E0D80020AC42CD
:10B5400009D2581E01239843013004E00123013938
:10B5500099430800013030BD002DD7D18B42CED1A8
:10B560008242E7DD0221581E08400138F3E7C04659
:10B57000F0B54E4657464546DE46E0B543025B0A07
:10B58000450083B00F1C99462D0EC60F002D57D0D5
:10B59000FF2D24D08020DB00C00418430023814607
:10B5A0009A469B467F3D7C027A00FB0F640A120E8E
:10B5B000984623D0FF2A4BD0E30080240020E404E7
:10B5C0007F3A1C43AD186B1C4746019353467740A6
:10B5D0003A000F2B48D87D499B00CB589F46002B43
:10B5E00000D085E008339A46063B9B467C027A00F1
:10B5F000FB0FFF25640A120E9846DBD1002C00D009
:10B6000090E0524601231A4392460120DBE74C4664
:10B6100058461700022824D0032800D1CFE000228A
:10B62000002301284DD15802D205400AFF071043DC
:10B63000384303B03CBC90469946A246AB46F0BDA9
:10B64000002B5BD104239A46033B00259B46AAE7C7
:10B65000FF35002C60D1524602231A439246022045
:10B66000B1E7FF220023DEE74B461B0C9C464B460E
:10B670002604360C180461463300220C6446000C84
:10B6800043434E435043544380191A0C12189642B8
:10B6900003D9802149028C4664441B041B0C10040E
:10B6A000C01883015E1EB341800E1843130C1B1992
:10B6B0009B0103431C00230179D5012362081C4030
:10B6C0001443019A7F32002A4DDD630704D00F2313
:10B6D0002340042B00D00434230103D53C4B019AB2
:10B6E0001C408032FE2ABCDCA3015B0AD2B29AE77E
:10B6F0000C239A46093BFF259B4654E7180000F0AF
:10B7000027FF4A46431F76259A4000236D42914603
:10B710002D1A9A469B4646E7524603231A43924601
:10B72000032050E7200000F013FF431F2D1A9C4018
:10B73000763D002047E780230027DB03FF2272E7E6
:10B74000424666E74C463200584662E780234A4646
:10B75000DB031A4222D01C4220D123435B025B0A46
:10B760004746FF225FE701239A1A1B2A21DC2300A8
:10B770000199D3409E318C401A0023005C1EA341E6
:10B7800013435A0704D00F221A40042A00D004336E
:10B790005A0111D49B015B0A002244E780234A46E8
:10B7A000DB0313435B025B0A3700FF223BE7019593
:10B7B00087E70022002336E70122002333E78023B6
:10B7C000DB0323435B025B0AFF222CE744F3010007
:10B7D000FFFFFFF7F8B54746CE464400C20F80B5DD
:10B7E00047024802400A8446664648007F0A240E03
:10B7F000F60025009046FB00000EC90FB146FF2859
:10B8000000D185E001267140261A914257D0002EC2
:10B8100043DD002800D07FE04946002900D1AAE09E
:10B82000013E002E00D0F7E05B1A5A0100D48BE0F5
:10B830009B019C09200000F08BFE05388440854266
:10B8400000DDD3E0451B230020200135EB40451BE4
:10B85000AC40621E94412343072400251C40012272
:10B8600041460A40002C04D00F211940042900D081
:10B870000433590100D480E00135ECB2FF2D00D033
:10B88000A3E0FF2400235B02E405580AD20720430B
:10B8900010430CBC90469946F8BD002E74D1601C34
:10B8A000C0B2012800DCA7E04A469C1A620100D51C
:10B8B000B6E0002CBED1002200240023E3E7002ED6
:10B8C00000DC85E0002846D0FF2C49D08022484685
:10B8D000D2041043814601221B2E09DC20204C4655
:10B8E000801B84404A462000F240441EA04102438F
:10B8F0009B185A0128D50135FF2D00D1A8E001225F
:10B90000072494491A405B080B4013431C40A6E7E8
:10B91000002E00D078E775E7FF2C54D080224946EE
:10B92000D2041143894601221B2E09DC20214846FE
:10B93000891B88404A460100F240481E81410A4363
:10B940009B1A5A0100D573E7012241460A40590764
:10B9500000D089E711E04846002858D1FF2C0CD1CF
:10B96000DB08002B00D18CE78020C00303435B027F
:10B970005B0AFF2487E7FF2C25D0DB08FF2DF0D0E2
:10B980005B025B0AECB27EE7002C4DD0FF2818D09A
:10B990008024E404724223431B2A00DDC4E01C001F
:10B9A0002025D440AA1A93405A1E934123434A4665
:10B9B0000500D31A884638E7721CF8D0F243FF28F6
:10B9C000EAD10A004B46FF25D7E79B015B0A5AE7FD
:10B9D000002E41D1651CE9B2012945DDFF2D00D1C2
:10B9E0004FE707244B445B081C4038E707225A4BBB
:10B9F0002D1A2340144032E7002C1DD1002B7AD1A0
:10BA00004B46002B00D191E00A000025B5E7013E2E
:10BA1000002E19D14B446CE7FF2C84D1FF25ACE7F5
:10BA20004A468846D41A05E7002BC5D10A00FF28EC
:10BA3000C8D005004B46A0E7002B49D14B46002B50
:10BA400077D00A00FF2598E7FF2C00D043E787E76F
:10BA50000A00FF24002316E7002C15D1002B57D134
:10BA6000FF28E6D14B467BE7002C20D1002B57D096
:10BA70004946002953D04B445A0168D50724364A19
:10BA80001C4001251340EAE6FF28EBD08022D204B7
:10BA9000764213431B2E53DC2025AD1B1A00AB400E
:10BAA000F2405C1EA34113434B44050021E7002BE9
:10BAB000D8D04946002900D152E78021C9030F425E
:10BAC00000D14DE76046084200D049E74B4647E7C2
:10BAD0004846FF25002800D14FE78022D2031742B5
:10BAE00004D06046104201D14B46884601224146AF
:10BAF000FF250A4041E7484600281FD01A1A500186
:10BB000020D54A460724D31A1C4088460025A6E6BD
:10BB1000741CC9D0F643FF28BCD14B4620E7994698
:10BB20004B460025DB082BE7012340E700220023DA
:10BB3000A9E680230022DB03FF24A4E600251CE7FE
:10BB40000123B1E7002AF1D013000025FCE600250F
:10BB5000FAE6C046FFFFFF7DFFFFFFFB4102420008
:10BB6000C30F490A120E00207E2A0DD99D2A0CD837
:10BB7000802000040143952A0ADC9620821AD140D5
:10BB80004842002B00D108007047034A9818FBE791
:10BB9000963A9140F4E7C046FFFFFF7F70B500285A
:10BBA0003DD0C317C5185D40C40F280000F0D0FC7D
:10BBB0009E22121A962A07DCD2B2082833DD0838F2
:10BBC00085406802400A23E0992A0BDD05232900FD
:10BBD0001B1AD94003001B339D402B005D1EAB4157
:10BBE00019430D00052801DD431F9D402B000F491F
:10BBF0000B406E0709D00F263540042D05D00433C5
:10BC00005D0102D59F220B40121A9B01580AD2B245
:10BC10004002D205400AE4071043204370BD0024CF
:10BC200000220020F4E76802400AF1E7FFFFFFFB73
:10BC300070B5041E34D000F08BFC9E22121A962A96
:10BC400007DCD2B208282EDD083884406002400AA2
:10BC500021E0992A09DD030021001B3399404B1E86
:10BC6000994105231B1ADC400C43052801DD431FC5
:10BC70009C4023000D490B40650709D00F252C403F
:10BC8000042C05D004335C0102D59F220B40121A0C
:10BC90009B01580AD2B24002D205400A104370BD3F
:10BCA00000220020F7E76002400AF4E7FFFFFFFBF5
:10BCB000F0B54F464646D6468446C0B58046194E36
:10BCC00018030F034D00000B5C0082463F0B6D0D07
:10BCD000C90F9146640DDB0F0120B5420AD0B44272
:10BCE00003D0A54201D157450CD01CBC90469946C3
:10BCF000A246F0BD66463E43F7D1AC42F5D154466C
:10BD00001443F2D10120C845EFD1994207D0002D4C
:10BD1000EBD163461F433800471EB841E5E70020DA
:10BD2000E3E7C046FF070000F0B54F464646D6465B
:10BD30004D00C0B50E03C90F8A462C491F035C0095
:10BD40008046360B6D0D91463F0B640DDB0F8D4227
:10BD50001ED08C4216D0002D1ED130438446002CBC
:10BD600001D13A4323D06246002A1AD09A4529D0FD
:10BD7000514602200139084001381CBC90469946C2
:10BD8000A246F0BD39001143E5D002204042F4E75D
:10BD90003043FAD1AC420FD0002C0FD13A43E7D058
:10BDA0000CE00122013B934318000130E5E76346B4
:10BDB0000020002BE1D0DBE73A43E6D19A45D7D10A
:10BDC000A542D5DCA54205DBBE42D1D808D0002073
:10BDD000BE42D2D250460123013898430130CCE70D
:10BDE000C845C5D80020C845F4D3C6E7FF07000002
:10BDF000F0B54F464646D6464D00C0B50E03C90FB6
:10BE00008A462E491F035C008046360B6D0D914615
:10BE10003F0B640DDB0F8D4218D08C4211D0002DEA
:10BE200018D130438446002C1ED13A431CD16346BE
:10BE30000020002B30D05146022001390840013843
:10BE40002AE039001143EAD0022025E03043FBD13B
:10BE5000AC4226D0002C26D13A4324D151460220B0
:10BE600001390840013817E06246002A0FD09A4590
:10BE7000E1D1A54205DBBE42DDD819D00020BE428B
:10BE80000AD25046012301389843013004E00122D0
:10BE9000013B9343180001301CBC90469946A246D2
:10BEA000F0BD3A43D0D19A45C5D1A542C3DCE0E705
:10BEB000C845C0D80020C845E3D3EDE7FF07000020
:10BEC000F0B55746DE464E464546E0B58346060089
:10BED0000F03480087B092461D003F0B400DCC0F6A
:10BEE000002800D16FE0DE4B984238D08023FF005D
:10BEF0001B041F43730F3B430193DA4B0027994602
:10BF000000239B46F60081442B0369001B0B52461D
:10BF10009846490DED0F002900D185E0D04B99429C
:10BF200000D173E04346DA0080231B0413435246DA
:10BF3000CC48520F84461343524600206144D2003D
:10BF400089442100694000918C46012149448A4678
:10BF50000F2F00D990E0C449BF00CF59BF465B46C0
:10BF60003B43019300D06AE1022308270026814663
:10BF70009B46C9E732005846019B61460091022862
:10BF800000D175E0032800D1FEE1012800D02CE1AA
:10BF900000230027002600253F032A0D3F0BB3484E
:10BFA00012053A4302401B051343009A5B00D10778
:10BFB0005B080B433000190007B03CBC9046994623
:10BFC000A246AB46F0BD5B463B43019300D12FE157
:10BFD000002F00D1A5E1380000F0BAFA03000B3BB6
:10BFE0001C2B00DD96E11D22D31A5A460100DA40CF
:10BFF0005E4608398F4013008E403B4301939C4BB3
:10C0000000271B1A994600239B467DE7414653466D
:10C010000B4393498C46E144002B00D01AE10222E5
:10C020000220174300228CE7134300D10DE1434661
:10C03000002B00D181E1404600F08AFA02000B3A61
:10C040001C2A00DD72E10100434608398B40984606
:10C050001D239A1A5346D3401A00434613435246AF
:10C060008A404946081A824989468144002068E787
:10C070007B4B002700268EE7140C1204120C1100D3
:10C08000370C3604350C794328008C462E0060436B
:10C090006044834656432100300C8046584679431D
:10C0A00040440291844506D98846802149028C4645
:10C0B000E044414602913604010C360C00048B46E4
:10C0C00081191E0C1B041B0C0391190079438C462B
:10C0D000280075436544A8465843050C45447743FA
:10C0E000A94203D9802149028C466744290C8C4619
:10C0F00039000004000C2D042D186144AB44059157
:10C100005946049101990F043F0C080C3900514322
:10C110004243904602008C46090C8B4662437C43A6
:10C1200044445C44A04503D98021490288464244E6
:10C13000210C884661460904090C8C463900594394
:10C14000434370437E430F0CF6182404BE19644425
:10C1500042448C46B34203D980235B029846404454
:10C16000029B61469846049B370443449B46AB457B
:10C17000AD416B420D0405992D0C8C467F19674427
:10C18000FD18A8465D462D19A542A4419346644278
:10C19000A446C344DC448F42BF4198459B4193452C
:10C1A0009241A445A4415B427F421F43360C524258
:10C1B0006442BF192243BF18624638184302D20DA9
:10C1C000039913436A020A43501E82416146ED0DF2
:10C1D0002A434E023243D90100D4B3E0012650086D
:10C1E00032400243DE0732435B08224C5444002CA9
:10C1F00062DD510709D00F201040042805D0101D22
:10C200009042924152429B180200D90104D58024E9
:10C210001948E400034054441848844200DD27E7ED
:10C220005E075B02D2081F0B630516435B0DB2E687
:10C23000002399460133042700269B4664E6032326
:10C24000019781460C279B465EE601220120174399
:10C25000002276E6032303201F43434671E6C046CF
:10C26000FF07000001FCFFFF84F30100FFFF0F80C8
:10C270000DFCFFFFFF030000FFFFFFFEFE070000B5
:10C280000023802700933F030026434B83E6019B56
:10C290003200A446584670E6AC466EE68027019907
:10C2A0003F0339422DD03B422BD11F433F033F0B6D
:10C2B00000951600384B6EE601252D1B382D00DD4C
:10C2C00066E61F2D40DC35481C00504416008240B5
:10C2D0008440EE40501E824134431443EB406207D9
:10C2E00009D00F222240042A05D02200141D9442B6
:10C2F000804140421B181A023ED501230027002628
:10C3000049E68027019B3F031F433F033F0B0094F7
:10C31000214B40E603005A46283B9A4000260192F2
:10C320006DE6584600F014F9203057E603005246F7
:10C33000283B9A401300002293E6504600F008F98B
:10C3400020307BE6CA4650E71F201E004042041BF7
:10C35000E640202D03D0124C5444A3401A43501EF3
:10C360008241324307260027164009D00F200023C0
:10C37000104014000428B9D122005E075B021F0B95
:10C38000D2081643002306E680273F031F433F03DE
:10C390003F0B1600004BFEE5FF0700001E040000E7
:10C3A0003E0400004100090E4B1C70B5DBB2460292
:10C3B000750AC40F012B14DDE0239B006D07360BBB
:10C3C000CB1800210A0D280012051C4D32435B05D5
:10C3D0002A405B0813435B00E4075B082343190012
:10C3E00070BD002914D1002D1ED0280000F0B0F837
:10C3F0000A281CDC0B232A001B1ADA400300153321
:10C400009D400F4B12031B1A5B05160B5B0DD8E703
:10C41000002D06D0320B802636036D071643094BDC
:10C42000CFE7084B0026CCE700230026C9E703002E
:10C430002A000B3B9A400025E3E7C046FFFF0F8030
:10C4400089030000FF070000F0B54C00640D0B03EA
:10C45000621C5B0A460F5205C90F1E43C500520DF0
:10C46000012A29DD374BE718FE2F1CDC002F3BDDAE
:10C470008001431E98410722F3006D0F03432B43B5
:10C480001A40002A04D00F221A40042A00D0043394
:10C490008022D2041A4024D00137FAB2FF2F02D0F2
:10C4A0009B01580A01E0FF2200204002D205400A09
:10C4B000C90710430843F0BD3543002C04D1002DBB
:10C4C0000AD100220020F0E7002DECD08020C0032C
:10C4D0003043FF22E9E7002400235B02580AE2B25E
:10C4E000E3E7DB083C00F8E73B001733F3DB80238E
:10C4F0001B0433431E26F61B1F2E14DD022252425C
:10C50000D71B1A00FA401700202E04D00E4A94467A
:10C510006444A3401D432B005D1EAB4107223B43F7
:10C520001A400027ADE7094A2800A2189540934019
:10C530006C1EA541F04007222B4303431A400027FD
:10C540009FE7C04680FCFFFFA2FCFFFF82FCFFFFCD
:10C550001C2101231B04984201D3000C10391B0A33
:10C56000984201D3000A08391B09984201D30009F7
:10C57000043902A2105C40187047C046040302024E
:10C5800001010101000000000000000010B50021C1
:10C59000040000F0F3F8044B1868C36B002B00D0C4
:10C5A0009847200001F024FBC4F3010070B50D4E44
:10C5B0000D4DAD1BAD1006D00024A300F35801347F
:10C5C0009847A542F9D102F063FD084E084DAD1B16
:10C5D000AD1006D00024A300F35801349847A542BB
:10C5E000F9D170BD68240020682400206824002050
:10C5F00068240020F0B50F2A37D90D0005430C0040
:10C600000300AD0735D11500103D2D092E01361858
:10C61000103627681F6067685F60A7689F60E768DB
:10C620001034DF601033B342F3D10F2401352D01F4
:10C63000491914404519032C1DD90023CE58EE503A
:10C640000433E61A032EF9D80323043CA40801346A
:10C65000A4001A402D190919002A05D00023CC5C2A
:10C66000EC5401339342FAD1F0BD0500002AF5D114
:10C67000FAE70500F2E72200F8E7C046F0B58307C5
:10C6800046D0541E002A42D0CEB20200032502E05A
:10C690001A00013C3BD3531C16702B42F8D1032CDB
:10C6A0002DD9FF220A40150215432A0415430F2CE9
:10C6B00016D92700103F3F093E01B4461E001A005C
:10C6C00010366644156055609560D5601032B242F0
:10C6D000F8D10F2201373F01DB191440032C0ED98A
:10C6E000261FB608B700BC461A001F1D674420C2AB
:10C6F000BA42FCD103220136B6009B191440002C2B
:10C7000005D0C9B21C19197001339C42FBD1F0BD90
:10C7100014000300C3E7C04610B5040083070AD025
:10C720000378002B23D0032202E00378002B1CD0D7
:10C7300001301042F9D102680E4B0F49D3189343D0
:10C740000B420FD1043002680A4BD31893430B42BB
:10C7500008D104300268074BD31893430B42F1D041
:10C7600000E001300378002BFBD1001B10BD00203E
:10C77000FCE7C046FFFEFEFE80808080F0B5DE460E
:10C7800057464E464546E0B53F4B87B01B6805907F
:10C79000180001930F0000F09FF83C4B1B680393B7
:10C7A0004933FF330493A422039B52009E58002E6A
:10C7B0004BD0049B9A4601239B467468651E32D475
:10C7C000C4235B00994604339C46B4446346013459
:10C7D000A4003419B144019302E0043C013D22D38A
:10C7E000002F04D0631CFF331B68BB42F5D1736874
:10C7F0002268013BAB4233D000232360002AECD0F7
:10C800007368494698465B46AB400968194229D18E
:10C81000904773684345C6D153461B68B342C2D1A3
:10C82000043C013DDCD21A4B002B0ED072683368F9
:10C83000002A22D1002B20D052463000136000E0A5
:10C8400000BF53461E68002EB7D10F4B186800F08A
:10C8500045F807B03CBC90469946A246AB46F0BDB1
:10C860007560CBE72100019880310068096802906B
:10C87000184205D105989047CBE7B2461E00E2E783
:10C8800008009047C5E7C04660240020C4F30100BB
:10C890000000000010B5010000230022002000F07D
:10C8A0001FF810BD70B5094B094CE41AA41009D04B
:10C8B000084AA518AD00ED182B68013C9847043DC7
:10C8C000002CF9D102F0EAFB70BDC04668240020BC
:10C8D00068240020FFFFFF3F7047C0467047C046F6
:10C8E000F0B54E464546DE465746E0B5364D83B078
:10C8F0000600286898460F009146FFF7EDFF334B7E
:10C900001C68A4235B00E058002852D043681F2B0A
:10C9100013DC5A1C0192002E28D1019A02339B008D
:10C9200042601F502868FFF7D9FF002003B03CBCCD
:10C9300090469946A246AB46F0BD254B002B3DD014
:10C94000C820400000E000BF002837D0A422002308
:10C950005200A15843600160A0504032835004321D
:10C960008350013301930023002ED6D09A009246C3
:10C9700082444A46882154466250C422520091465D
:10C9800081444A468739994012688B460A43944647
:10C990004A4661461160842241465200A150022E4F
:10C9A000BBD102005C468D32FF3211680C4314602B
:10C9B000B3E720004D30FF30E050A7E72868FFF7CD
:10C9C0008DFF01204042B1E760240020C4F3010044
:10C9D00000000000F0B557464E46DE464546E0B53D
:10C9E0008FB01D0006000F00140000F0ADF9CE4B13
:10C9F000009001919A461B785BB2994601333ED074
:10CA000022002B002000290002F05AFA8346002859
:10CA100035D132003B003000390002F051FA0022DB
:10CA20000390002800D06FE0002330003900FEF7AB
:10CA3000ADF900282CD00022002320002900FEF7A9
:10CA4000A5F98346002800D192E004AB9846012363
:10CA500042460493B54B53604346039A1C615D61A3
:10CA60001A629E60DF604246002300249361D46115
:10CA70004B46002B67D00023AD4C009301940098E7
:10CA800001990FB03CBC90469946A246AB46F0BD1A
:10CA90000098019900F09AFF8146002800D19AE0A1
:10CAA0000098019900220023FEF770F90028E6D0D3
:10CAB0003000390000F08AFF0028E0D02000290073
:10CAC00000F084FF0028DAD004AB984604234246E5
:10CAD0000493964B14615561536000230024136244
:10CAE00000239361D46153461B789660D7605BB294
:10CAF000022B04D0404600F073FF002829D102F039
:10CB0000C1FA2223036024E0002320002900FEF75D
:10CB10003DF90028B3D004AB984601234246049364
:10CB2000824B4146536043465A461A6200229E6039
:10CB3000DF601C615D617E4B8A61CB610092019375
:10CB40004B46022B9BD0404600F04AFF002800D104
:10CB50008AE043461B6A002B04D002F093FA434656
:10CB60001B6A03604346DC699B690093019486E776
:10CB70002000290000F02AFF002800D17FE70022D2
:10CB8000002320002900FEF707F9002800D176E7EE
:10CB900004AB9846012342460493644B53604346DA
:10CBA0005A469E60DF601A621C615D6153461B78C5
:10CBB0005BB2002B5DD0002042465E499061D1619E
:10CBC000022B5BD102F05EFA2123036043461B6A0D
:10CBD000002BC7D0C1E73000390000F0F7FE002875
:10CBE00000D15DE72000290000F0F0FE002800D110
:10CBF00056E70098019953461B7802005BB29B46AA
:10CC00000B0002F05DF904AB9846002862D10323C3
:10CC100042460493454B146155615360106296601F
:10CC2000D760454B200029000022FFF749F95B46F9
:10CC300004000D00002B27D1E02241463F4B120695
:10CC40008A61CB613000002200233900FEF7A4F88E
:10CC500000282AD1404600F0C3FE0028B6D102F0D9
:10CC600011FA22230360B1E702F00CFA21230360DA
:10CC70006FE74246002300249361D461404600F0F0
:10CC8000AFFE0028A2D19DE7002241462C4B300088
:10CC90008A61CB61002200233900FEF77DF800286D
:10CCA00035D15B46022BDAD0D4E72000290000F012
:10CCB0009FFE22002B00FEF769F8002805D1E02234
:10CCC000204B120641468A61CB6153461B785BB20A
:10CCD0009B46E6E7012342460493144B53604346C8
:10CCE0004A469E60DF601A621C615D615B46002BF4
:10CCF000BFD0002300221900100001F097FA43462C
:10CD00009861D9615B46022B00D15BE7B6E7200052
:10CD1000290000F06DFE22002B00FEF737F80028F6
:10CD2000D3D10022034BCDE764240020C8F30100D7
:10CD30000000F03F0000F0FF0000E03FFFFFEF4782
:10CD40000000F07FFFFFEFC7F0B55746DE464E46C6
:10CD500045465C006408E0B598461F00230093B088
:10CD600083468A46160013430CD07D4B4D0002913A
:10CD700081466D089D4212DD7A4B9C465B466544B8
:10CD80001D4361D10023784C0093019400980199D0
:10CD900013B03CBC90469946A246AB46F0BD9D42BE
:10CDA00050D09C42E8DC6E4B9C426BD00023049335
:10CDB0005346002B69DB002A10D1694B9C424CD0B2
:10CDC000694B9C4200D1A3E08023DB05984500D14C
:10CDD000BCE0664B984501D100F0D6FB5846514661
:10CDE00000F0F0FD4B4600900191002B07D1002D83
:10CDF00067D053465C4A9B009B08934261D05346E0
:10CE0000DB0F013B99464A46049B134300D190E057
:10CE1000574B9C4200DCBBE0564B9C4201DC00F0CF
:10CE200010FC554B9D4201DC00F004FC4346002BF6
:10CE300023DD524A524B10001900FFF741F80090D1
:10CE40000191A3E7002805D04E4800F0CBFD0090EB
:10CE500001919BE7AC42F7DCA5E75A46414BEB1842
:10CE6000134300D18EE7444B9D4200DC99E34346D7
:10CE700000960197002B00DB88E700230024009335
:10CE8000019483E7002A91D076E73F4B9C423CDC3B
:10CE9000394B9C428FDD3D4923158C466344142B4E
:10CEA00000DCB2E33421CB1A3100D94008009840AD
:10CEB000904200D07FE70123194001335B1A0493AD
:10CEC00079E74346002B07DA009A019B00202649A8
:10CED00001F0ACF900900191029B002B00DB55E7BB
:10CEE000204B9C46049B65441D4301D100F00EFC81
:10CEF000049B012B00D049E7009C019D802122006A
:10CF000009066B180092019340E70223049352E74D
:10CF100058465146434600900191002B00DB35E70F
:10CF20005A4653460020104901F080F900900191C3
:10CF30002CE75A4653465846514601F079FC020008
:10CF40000B0001F073F9009001911FE75A46534618
:10CF500058465146FEF7B4FF0090019116E7C046CF
:10CF60000000F07F000010C00000F03F0000E03F34
:10CF70000000E0410000F043FFFFEF3F9C75008898
:10CF80003CE4377ECCF30100FFFF3F4301FCFFFF91
:10CF9000E44B00229D420ADC009801990022E24BFA
:10CFA000FEF78EFF35220D00009001915242DF49BD
:10CFB0002B158C46634498462D03DD4CDD4B2D0B21
:10CFC00090442C439D420ADDDB4B9D4201DC00F086
:10CFD00001FC01239C46D94BE0449C46644400225A
:10CFE00000230E920F931092119300220025D04B34
:10CFF0000692079300980199069A079B21000890D2
:10D00000099101F015FC069A079B0A900B9108986C
:10D01000099900F0EFFD02000B000020C44901F067
:10D0200005F90A00010013000C910D9202000A9804
:10D030000B99FEF745FF0A000100130002910392CD
:10D04000002200920193802364109B0523438024D7
:10D050002403A44600206344591904000D00020073
:10D060000B0000980199FEF72BFF02000B000A98B5
:10D070000B9901F0DDFB069A079B0A900B912000AB
:10D08000290001F0D5FB02000B000898099901F076
:10D09000CFFB009A019BFEF713FF02000B000A98DA
:10D0A0000B9901F0C5FB0C9A0D9BFEF709FF029C42
:10D0B000039D0890099122002B0020002900FEF713
:10D0C000FFFE04000D009E4A9E4BFEF7F9FE9E4AAD
:10D0D0009E4B00F08FFD22002B00FEF7F1FE9C4AD4
:10D0E0009C4B00F087FD22002B00FEF7E9FE9A4AD8
:10D0F0009A4B00F07FFD22002B00FEF7E1FE984ADC
:10D10000984B00F077FD22002B00FEF7D9FE964ADF
:10D11000964B00F06FFD2200069007912B00200037
:10D120002900FEF7CDFE02000B0006980799FEF7D6
:10D13000C7FE009A019B04000D000298039900F0BD
:10D1400059FD089A099BFEF7BBFE22002B0000F058
:10D1500051FD009C019D0A900B9122002B002000A4
:10D160002900FEF7ADFE0022814B04000D0000F007
:10D1700041FD0A9A0B9B00F03DFD00220B001100BF
:10D180001A00069107920A0000980199FEF798FE8E
:10D1900000220C900D9106980799754B01F048FB01
:10D1A00022002B0001F044FB02000B000A980B99AF
:10D1B00001F03EFB029A039BFEF782FE069A079B54
:10D1C00004000D0008980999FEF77AFE02000B0092
:10D1D0002000290000F00EFD04000D0002000B00ED
:10D1E0000C980D9900F006FD00221000E022614B22
:10D1F000120600900191FEF763FE0C9A0D9B0290BF
:10D2000003910098019901F013FB02000B0020002C
:10D21000290001F00DFB584A564BFEF751FE574AC4
:10D2200004000D0000980199554BFEF749FE0200DD
:10D230000B002000290000F0DDFC109A119B00F08B
:10D24000D9FC06900791404601F056FE069A079BCE
:10D2500004000D000298039900F0CCFC0E9A0F9B7D
:10D2600000F0C8FC22002B0000F0C4FC00202200CB
:10D270002B000090019101F0DBFA0E9A0F9B01F058
:10D28000D7FA029A039B01F0D3FA02000B0006982A
:10D29000079901F0CDFA069007914A46049B013B9D
:10D2A000134300D188E10023214C02930394002210
:10D2B0003B0030003900140001F0BAFA009A019BDB
:10D2C000FEF7FEFD32003B00049005910698079999
:10D2D000FEF7F6FD02000B000498059900F08AFCA9
:10D2E0003D0006000F000098019922002B000496D3
:10D2F0000597FEF7E5FD02000B00300039000092B3
:10D30000019300F077FC1F4B04000D008B460200D8
:10D31000994200DC55E11C4BCB18034300D0FBE1E4
:10D3200034E0C046FFFF0F000000404301FCFFFF58
:10D330000000F03F8E98030079B60B000000F0FF6C
:10D34000EF4E454A287ECA3F65DBC9934A86CD3FEA
:10D3500001411DA96074D13F4D268F515555D53FD0
:10D36000FFAB6FDBB66DDB3F033333333333E33F68
:10D370000000084009C7EE3FFD033ADCF5015B14ED
:10D38000E02F3EBEFFFF8F40000070BF049805995C
:10D39000E84AE94B00F02EFC009A019B06000F00C2
:10D3A0002000290001F044FA02000B00300039008F
:10D3B000FDF706FDAA46002800D0ADE18024DF4A33
:10D3C00053469446640322001B1563441A4113001C
:10D3D000DB495B445A001E001B038C461B0B234396
:10D3E0001424520DD74D62441541A21A1341994697
:10D3F0005B46AE4300203100002B02DA4B465B4215
:10D40000994602000B000098019901F011FA4B4671
:10D410001B0500900191020098460B0004980599A5
:10D4200000F0E8FB0D0000240022C74B200029007B
:10D43000FEF746FD009A019B069007912000290007
:10D4400001F0F6F902000B000498059901F0F0F9DB
:10D45000BE4ABF4BFEF734FDBE4A06000F00BE4B6E
:10D4600020002900FEF72CFD02000B0030003900DF
:10D4700000F0C0FB04000D0002000B0006980799A5
:10D4800000F0B8FB069A079B06000F0001F0D0F9E8
:10D4900002000B002000290001F0CAF932000090C0
:10D4A00001913B0030003900FEF70AFD04000D0039
:10D4B000AA4AAB4BFEF704FDAA4AAB4B01F0B8F900
:10D4C00022002B00FEF7FCFCA84AA94B00F092FBBF
:10D4D00022002B00FEF7F4FCA64AA74B01F0A8F9A6
:10D4E00022002B00FEF7ECFCA44AA54B00F082FBC7
:10D4F00022002B00FEF7E4FC02000B003000390094
:10D5000001F096F904000D0002000B003000390014
:10D51000FEF7D6FC8023049005910022DB05200055
:10D52000290001F085F902000B000498059900F02C
:10D530007DFE009A019B04000D0030003900FEF7CB
:10D54000BFFC009A019B00F055FB02000B0020007D
:10D55000290001F06DF932003B0001F069F9020089
:10D560000B000020874901F063F943465B181A1548
:10D57000002A00DC3FE11900029A039BFEF7A0FCA1
:10D5800000900191FFF702FC5346002B01DAFFF7F0
:10D5900025FC5846514600F03DF900900191FFF7F7
:10D5A000F5FB4346002B00DB67E480231B06FB18DA
:10D5B00000960193FFF7EAFB0023734C0293039458
:10D5C00075E64B005B089A46704B9A4500DCF9E023
:10D5D0006F4B5B441A430AD1009A019B01F028F972
:10D5E000049A059BFDF7F6FB002800D1E6E60298B9
:10D5F0000399684A684BFEF763FC664A664BFEF780
:10D600005FFC00900191FFF7C1FB002A01D0FFF7FA
:10D61000E5FB1432D31A22001A4111009940A142AD
:10D6200001D0FFF7CDFB01231A40DB189B1A0493AE
:10D63000FFF7C6FB4346002B01DBFFF71EFCFFF79D
:10D64000F8FB564B9D42F5DD4E4B9D4201DDFFF749
:10D65000EDFB0098019900224A4B01F0E9F8C02245
:10D660004F4BD20504000D00FEF72AFC4D4A0290F4
:10D6700003914D4B20002900FEF722FC0022009070
:10D6800001914A4B20002900FEF71AFC02000B0012
:10D690004748484901F0CCF822002B00FEF710FC67
:10D6A00002000B000020444901F0C2F8220006905D
:10D6B00007912B0020002900FEF702FC02000B005E
:10D6C00006980799FEF7FCFB1A4A354BFEF7F8FB64
:10D6D00002000B000098019901F0AAF802000B006B
:10D6E00004000D000298039900F084FA029A039B4B
:10D6F00000200090019101F09BF802000B00200037
:10D70000290001F095F806900791C6E50098019967
:10D7100002000B00FFF711FC284A294B02980399DD
:10D72000FEF7CEFB254A264BFEF7CAFB009001917F
:10D73000FFF72CFBFE822B654715973C02FCFFFF91
:10D7400001FCFFFFFFFF0F00432EE63FEF39FAFE1B
:10D75000422EE63F396CA80C615C20BED0A4BE729C
:10D760006937663EF16BD2C541BDBB3E2CDE25AFAD
:10D770006A56113F93BDBE166CC1663F3E55555566
:10D780005555C53F0000F03F0000F0BFFFCB904073
:10D7900000346F3F59F3F8C21F6EA501FEFFEF3F43
:10D7A0004715F73F44DF5DF80BAE543E0000D03F15
:10D7B000555555555555D53F0000E03F9C7500889F
:10D7C0003CE4377E00220E4B904691469A4500DCA1
:10D7D00029E6F3E580220B4BD2050E920F930A4AFD
:10D7E0000A4B8025109211930022094BED020692FC
:10D7F0000793FFF7FFFB4A4600F08AF9BCE6C046F4
:10D800000000E03F03B8E23F06D0CF43EBFD4C3EC3
:10D810000000F83FF8B54746CE46674B80B50A0092
:10D820000F00190005003940994200D19BE0040027
:10D830000100002F69DD3F1500D1B4E05F4B1203FA
:10D840009C468023120B5B0313435B00CA0F6744A3
:10D850009B184A00F80703D5D20F5B009B188A007B
:10D8600079108C46002180201624894680030D18EB
:10D870009D4202DC29185B1B8144D50F5B00013CF3
:10D880005B1952004008002CF1D100208046802016
:10D8900020250027000609E08B425CD0D40F5B00F6
:10D8A000013DE31852004008002D16D0C4198B42E8
:10D8B000F2DD27180E00002C49DB5B1AA2428941D9
:10D8C00049425B1A121BD40F5B00013D80443100BA
:10D8D000E31852004008002DE8D113434ED14346CF
:10D8E0005B0837494A468846494652104244C907B0
:10D8F00002D5802109060B4361460F05BD181800AB
:10D9000029000CBC90469946F8BD7B005B08034398
:10D910003900002BF5D0002F3CD1E30A153A6405FD
:10D92000002BFAD08020400303423FD1002700E0C3
:10D930000F005B00791C0342FAD0250020208D40A7
:10D94000401A2900D71B2200C2401A4376E7FE4343
:10D95000F60F8E19B1E79442A0D82718002CF6DBF9
:10D960001E000023AEE702003B0028003900FEF74E
:10D97000A7FA2A003B0000F03DF9C2E74346013315
:10D9800003D0434601335B08ABE7012398460023ED
:10D99000C144A6E73B00020000F04AFF02000B0072
:10D9A00000F044FCADE713000022BBE70127210093
:10D9B00020207F42C6E7C0460000F07F01FCFFFF49
:10D9C0000000E03F49004B0819007047034B480036
:10D9D0009C4640086044C00F7047C046000010805D
:10D9E00000207047002001497047C0460000F87FC2
:10D9F000F0B5C64600B5CB0F9846404A4B005B0DCC
:10DA00009A1882B00D000400132A2FDC002A49DB8B
:10DA10003B4F17413E000E40064323D07F0839009C
:10DA200029400C430AD03749BD438C4663445C42CD
:10DA30005C418023DB021341E4071D434146CE00D5
:10DA400031492B008E1922003468756820002900A6
:10DA500000F0D0F8009001910098019922002B006D
:10DA600000F0E6FE02B004BC9046F0BD332A08DDAB
:10DA70008023DB009A42F5D102000B0000F0BAF8D7
:10DA8000F0E7224A9446012263445242DA400242BD
:10DA9000E8D052080242D1D094438022D2051A41E4
:10DAA0001443CBE74B005B080343DBD00B031B0B9A
:10DAB0001C436342234380244D0C24031B0B23404F
:10DAC0006D042B4319004346DA000F4B9B181C686A
:10DAD0005D6802000B002000290000F08BF8009028
