:020000021000EC
:108000000040002039810100798101007B8101005D
:108010000000000000000000000000000000000060
:108020000000000000000000000000007D81010051
:1080300000000000000000007F810100818101003C
:108040008581010087810100898101008B81010008
:108050008D810100000000008F81010091810100ED
:1080600093810100958101009781010099810100B0
:108070009B8101009D8101009F810100A181010080
:10808000A3810100AD8C0100A78101000000000068
:108090006D8D0100AB810100A1830100AF81010062
:1080A000B1810100B3810100000000000000000068
:1080B00000000000000000000000000000000000C0
:1080C000164B002B00D1144B9D46402292029A1A67
:1080D000924600218B460F461348144A121A01F0AB
:1080E00067FC0F4B002B00D098470E4B002B00D0A5
:1080F00098470020002104000D000D48002802D000
:108100000C4801F061FD01F0EBFB2000290000F0BC
:1081100099F801F0D5FBC04600000800004000209F
:10812000000000000000000044240020452800203A
:10813000C99B0100D99B01000948026803210A4339
:1081400002600849084A094B9B1A05DD00240859BA
:10815000105104349C42FADB05488047054800472B
:1081600024050040509D01000020002044240020F0
:10817000B5810100C1800100FEE7FEE7FEE7FEE7F2
:10818000FEE7FEE7FEE7FEE7FEE7FEE7FEE7FEE7C7
:10819000FEE7FEE7FEE7FEE7FEE7FEE7FEE7FEE7B7
:1081A000FEE7FEE7FEE7FEE7FEE7FEE7FEE7FEE7A7
:1081B000FEE7FEE71C4910B50B68DBB2012B0FD1BF
:1081C0001A4B1B681B070BD1194BE0241A68F023CC
:1081D0001000184022421BD1164A12681A421AD0C7
:1081E0000B68DBB2012B12D1104A126812070ED1B4
:1081F000F0210F4A12680A40402A08D10D4A12683D
:108200000A4204D18021C122C905D2008B5010BD81
:108210003028E1D0E4E7084B084A1A608022084B76
:1082200012021A60DCE7C046E00F00F0E40F00F035
:10823000E80F00F0EC0F00F004050040DFFF07C07E
:10824000186C004010B5112001F054F8054801F0F9
:10825000DDFA01F023FB112001F05AF801F0C8FA11
:10826000FCE7C046002000202EDF704751DF70473A
:1082700010DF704761DF704710B50800110001F092
:108280009BF810BDF0B5254B85B01B78DBB2009391
:10829000002B18D0224E234F33685A425A41D2B293
:1082A00001923A68002A14D1009C002B0BD021E0E7
:1082B00003983B6898472C0019E0280033689847DA
:1082C00029E0002C05D005B0F0BD002CFBD1009CAE
:1082D000019403A8FFF7CAFF009C0500052806D0FB
:1082E0000028E5D00022110001F05CF80024019B79
:1082F000002BE6D10C4B03A91B880B800B4B1D6890
:108300002800FFF7B7FF0528DFD00028D5D00022CE
:10831000110001F047F8002CECD1D9E750240020DF
:108320004824002054240020442400205824002005
:1083300070B504000720002913D08D0711D109481A
:108340000160094920000A80084A09491360FFF7C3
:108350008FFF002805D10122064B16301A70FFF757
:1083600083FF70BD58240020442400204C240020AA
:1083700079820100502400200E23002802D0024BF5
:108380001860002318007047482400200E2300289E
:1083900002D0024B186000231800704754240020BC
:1083A000074B10B51B68002B07D09847002803D057
:1083B0000022110000F0F6FF10BDFFF763FFFBE79E
:1083C0004C24002071DF704772DF704779DF7047FF
:1083D0007DDF704765DF7047F0B5002506002F0090
:1083E00089B001930EAB10CB04911B8803920593C7
:1083F000238802933388BB420EDC0020854209D0DB
:108400002388029A013B9B1A9BB2FF2B3ED8019A0C
:108410000299535409B0F0BD7368B9005918042289
:1084200007A801F081FA06AB0022D91C07A8FFF7C4
:10843000D1FF0028EED106ABDB78039A934223D11B
:1084400069426941238849009A18521805998A425D
:108450001CDC002D08D10133019A04999BB22380C2
:10846000D154238801332380019B228807A89A18BE
:1084700006ABDD1C2900FFF7ADFF0028CAD12B7821
:10848000012522889B1823800137B3E70C20C1E720
:10849000F0B51D0085B00AAB40CB03921F880222C5
:1084A000019700962B000400FFF796FF002807D1E4
:1084B000019700962B00102203992000FFF78CFFF4
:1084C00005B0F0BDF0B5138887B002930023138088
:1084D000436B07000D001400002B15D0029A022AEE
:1084E00001D80C2086E11A7802230B701121238811
:1084F00001339BB22380E954238801339BB223804C
:10850000EA542388013323803A6B002A1CD0238845
:108510000298190012318142E3D81121E9542388CD
:10852000013901339BB22380E9542388013323802E
:108530001300013A0F3318782188013B68542188D1
:10854000013121809342F6D13B002E331878002868
:1085500021D023880299DA1C8A42C2D802221C2127
:10856000EA54238801339BB22380E9542388411EB7
:1085700001339BB223800720032900D93AE1080088
:1085800001F094F904002501050027010022EA54B6
:108590002388013323803B002D331B78002B2DD003
:1085A0002388029A09330C20934200D922E104AEB9
:1085B0003000FFF707FF002800D01BE10822092147
:1085C0002388EA542388133201339BB22380EA5470
:1085D000208802AB013080B22080153AC9182818D3
:1085E00001F0A2F92388327806339BB22380002A57
:1085F00000D0F0E0EA54238801332380BB78002BBD
:1086000022D02388029A04330C20934200D9F1E04F
:1086100004AE3000FFF7DAFE002800D0EAE00322C3
:108620002388EA542388163201339BB22380EA540C
:108630002388328801339BB22380EB181A70120A08
:108640005A70238802332380FA78002A15D02388B1
:108650000298D91C814200D943E70221E9542388BA
:10866000013901339BB22380E95423885B189BB204
:108670002380EA5423885B1823807A68002A17D065
:1086800023880298D91C814200D92AE70221127856
:10869000E9542388083101339BB22380E9542388AD
:1086A00052B201339BB22380EA54238801332380E2
:1086B0003B89002B00D090E03B8A002B0CD0380087
:1086C000029B0094019307222B0003211030FFF737
:1086D000DFFE002800D08DE03B8B002B0CD0380053
:1086E000029B0094019315222B0014211830FFF7F0
:1086F000CFFE002800D07DE03B6A002B00D07BE05D
:108700007E6A002E2ED0B3882188981C8A1C1218ED
:108710009446029A944500D9E3E6FE2800D9E0E6A3
:10872000FF2203336B54238801339BB22380EA5426
:10873000238801339BB223803288EB181A70120A07
:108740005A702088023080B22080B288002A09D076
:10875000B168002959D0281801F0E6F82388B288BA
:108760009B1823803B002C331B78002B00D083E028
:108770003B78181E3ED03A880720012A3AD022883A
:108780000299901C884200D9ABE6012B06D17B7878
:10879000029902339B18994200D2A2E6029E02ABD4
:1087A000023EB61AB6B2281804A91E81FFF710FEC1
:1087B00000281FD13B78022B00D09AE002AB1B8926
:1087C0000922B34200D89EE002AB1E819AE001224A
:1087D000DDE60322DBE601220CE73800029B009471
:1087E000019306222B0002210830FFF751FE0028DA
:1087F00000D161E707B0F0BD26880299B21D8A4218
:1088000000D96EE61988052901D80720F2E7464805
:108810000A1892B20392454A9446039A6245F4D9E3
:108820005A88052AF1D9101880B26045EDD9404820
:10883000814203D0824201D09142E6D80522122122
:10884000AA552288013292B22280A954228801328C
:1088500092B222801988AA181170090A51702288D0
:10886000023292B222805988AA181170090A5170F6
:1088700023880233238043E7BB6A002BC5D0002343
:1088800003933B002C331B78039A934200D86FE785
:108890000C26039B5E43BB6A9E19B3889A1CFE2A72
:1088A00000D91EE622880333AB54162223880133F5
:1088B0009BB22380EA54238801339BB22380328801
:1088C000EB181A70120A5A702088023080B2208089
:1088D000B288002A09D0B168002996D0281801F082
:1088E00023F82388B2889B182380039B0133DBB2D3
:1088F000C6E7012B00D067E77B789E4200D263E792
:1089000002AA1381082202AB1989FE2900D9E8E5E1
:1089100023880131E954238801339BB22380EA5430
:1089200023885918218065E77FF3FFFF7DF300005E
:10893000FFFF0000F0B593B06A461F2301AE971DFC
:108940000D0033803B8000281FD0C3785B0702D422
:10895000072013B0F0BD320002A9FFF7B3FD02AC4F
:108960000028F6D1002D13D0EB78002BF0D13A007F
:108970000AA92800FFF7A6FD0AAA0028E9D13B783A
:1089800031782000FFF720FDE3E730800400E9E7BD
:108990003D802A00F3E775DF704776DF70477ADFA6
:1089A00070477BDF70470000164B13B51888164BD5
:1089B000984211D0154A164C13780133DBB213706C
:1089C000217B994209D31349FFF7E5FF002803D023
:1089D000A369002B00D0984713BD00231370237C9C
:1089E000002B08D03B21FFF7D8FF002803D0A36954
:1089F000002B00D098476369002BEDD0002201A81E
:108A00000270E8E75E240020FFFF0000AC24002095
:108A100060240020A424002037B5184B184A5B8836
:108A20001188184C184D994208D852889A4205D39B
:108A30006369002B1ED100232B7037BD2B78002BD0
:108A400006D06369002BF6D0002201A802700DE069
:108A50000E4B1B78002B0BD1616800220C4800F0F4
:108A6000DBFB0028E7D0A369002BE4D09847E2E7BE
:108A7000A168F2E701A80122E8E7C0469C24002093
:108A8000A4240020602400205C240020AC240020CA
:108A90007C240020144902000B0070B532CA32C396
:108AA00032CA32C31268114C1A600022104B01689E
:108AB0001A70914214D00832200000F035FF2000D7
:108AC000FFF76DFF00280AD101220021094B524215
:108AD0001A80094B094A0A48197000F085FB70BDDD
:108AE0002000FFF75EFFEDE760240020A4240020B3
:108AF0005C2400205E240020AC240020A989010011
:108B0000309D0100038810B5112B2DD002D8102BF9
:108B100017D010BD122B39D0502BFAD11E4CC18862
:108B2000E2899142F5D1C38B022BF2D10130C37F90
:108B3000DB0716D4194800F0B1FB0028E9D0A3697F
:108B400020E001008288164B16311A801548082251
:108B500000F0EAFE0022144B1A700F4BDB8993429F
:108B6000D7D1FFF759FFD4E701220D4B52421A80AB
:108B700000220D4B09481A7000F090FB0028C8D065
:108B8000054B9B69002BC4D09847C2E7811D082282
:108B9000044800F0C9FEE4E7602400207C240020A3
:108BA0005E2400209C240020AC2400208022194B4D
:108BB0009202DA67D2218022174B520289005A5062
:108BC00040395A5001212F22596010000138C04607
:108BD000C046C046C046C046C046C046C046C04665
:108BE000C046C046C046F1D1996000230B49100031
:108BF0000B600138C046C046C046C046C046C046AD
:108C0000C046C046C046C046C046C046F1D1044A30
:108C10001370704704E100E000100140C4240020FC
:108C2000B524002010B54378020001338078DBB210
:108C3000984200D10023147800209C4205D00B708C
:108C40005378183043435068C01810BD144B0220AD
:108C50005B68DB05DB0D1CD0103B5AB2DBB21900A0
:108C6000013001408140002A14DA0F221340083BF2
:108C70009B080C4A9B009B185B68CB409B090340F8
:108C8000DBB20020012B04D0033B1800431E9841A7
:108C9000013070479208C032034B9200D358ECE782
:108CA00000ED00E018ED00E000E100E0F8B5002480
:108CB000244B5C649C64DC641C655C609C60224B9F
:108CC0001968A14235D0214B214AD558214B1B6848
:108CD000ED1A2D022D0A0B68AB4217D8ED1AE418D5
:108CE0000B7CCF69002B0FD000261B4B0E741A682B
:108CF0004B698969B2421FD018009047B04203D037
:108D00003200310000F04EFB002F13D1134B144AF8
:108D1000197813788B4204D10133DBB2022B0ED0C9
:108D2000137013780F4A9B009C5080220E4B520305
:108D30005A60F8BD3900CEE708009847E4E7002301
:108D4000EEE7C046FC100140CC24002004050000E2
:108D500000100140C4240020B0240020C0240020C2
:108D6000C1240020B8240020FCE100E0F0B5AD4AA9
:108D7000AD491368AD488DB0059304780B78002792
:108D80009C4200D1C7E00133DBB2022B00D1C0E02E
:108D90000B700B78A6499B005F58059BDB191B02E3
:108DA0001B0A13600123009300250120A14B0995A4
:108DB0001B680693A04B1B780193A04B019A1B687C
:108DC00002920793974B1B6808939D4B1B780A935D
:108DD000069B029A013AD2B20292FF2A00D09CE08E
:108DE000099A002A05D0964A0A9911708D4A089965
:108DF0001160904A002D00D013601368009A002A79
:108E000000D0DFE0069A0025D31A5A1E9341DBB248
:108E10000093884B1B680493894B049A1B78069334
:108E2000804B1B68029300230393019B013BDBB241
:108E30000193FF2B00D0CAE003997E4B002900D09C
:108E40001A601B68049A9A4203D1009A002A00D142
:108E50005AE0002B00D140E17A4A7B4C0299155927
:108E60007A4E691A1B6809023078090A00930331A7
:108E700000281FD18020D1274002BF00D051403FA1
:108E8000D051C02380277248BF025B00C7500760E3
:108E900001272F2017600138C046C046C046C04693
:108EA000C046C046C046C046C046C046C046C04692
:108EB000F1D13770009B8B4200D20B00A8200299A1
:108EC000C0005B181B021B0A13501159491B0902F1
:108ED000090A5D1B2D0203312D0AA94214D9135929
:108EE00013502F200138C046C046C046C046C04679
:108EF000C046C046C046C046C046C046C046F1D186
:108F00008022544B92025A6000224D4B1A700DB0D1
:108F1000F0BD0F703DE7009746E7029AD100079A2F
:108F200052180392039912784C780B940B998A4249
:108F300000D14EE71824039954434E680132341986
:108F40008E78D2B2964200D100222678022E08D026
:108F5000032EEBD1002BE9D0002105001974DB6949
:108F6000F8E71E009C4664680494002EDED0049945
:108F7000F469B14200D1B3E0B4462600F5E71868C1
:108F8000B84206D9002A01D02A4A1360C01B1860D3
:108F90003FE73F1A0918D8681C60DE69002807D02F
:108FA000DD611D00059A986052181202120A5A607B
:108FB0003300009A002BE2D1002A00D129E71D4A94
:108FC000136026E70022150011001400F2E70026C6
:108FD000019BD800079B1818002D3DD144780378D9
:108FE000A34200D121E7182159434768013379187A
:108FF0008778DBB203709F4200D106700B78012B9B
:10900000EDD14B681F7C002FE9D18C685C60CC6887
:109010009C600C694969DC609961069900291DD042
:109020005F601BE0C4240020C0240020C124002075
:10903000B8240020CC240020C8240020D024002004
:10904000B42400200010014004050000B5240020D5
:1090500000E100E0FCE100E02B00ED695968029CB2
:1090600005910C1B2A492402240A9F688C4212D8BD
:10907000E4191C6001215E609E601974DE61002AA3
:1090800006D01C6811688C4224D80C1B1460DA616D
:10909000012203921CE00299059C091B0902090A9E
:1090A000B94202D27F1A1F60E4E71E60E2E7E41BC8
:1090B000CF698C46002F07D039000F68A742F6D33E
:1090C0003F1B0F600F0061461C60DF61CB61130026
:1090D0001A0081E794461100EFE7FFF767FD13E7F9
:1090E0000499614509D1DB690500002B05D1094DC3
:1090F000A8600500089309900A9004990E686146DB
:10910000CC61002C00D111E721688E1926600DE793
:10911000FEFF7F0000100140F0B50327150085B069
:1091200002900191039314003D400720002D03D1CC
:10913000224E002A02D1326005B0F0BDFFF736FDA5
:109140001F4B039A01991A601E4B18221F702300AF
:1091500018334A43190034600198636025706570C4
:10916000A07008349B188C42F6D18020C022C52400
:10917000FF21154B40031D60144B52001D70144B12
:10918000A4001D70134B98501A598A431100C02235
:109190000A431A51A122186002990F48D200815047
:1091A000043C1A590D491140C02212020A431A51B7
:1091B0000B4BC2580B4B00201A60BDE7D024002097
:1091C000B0240020C8240020CC240020C02400208B
:1091D000C124002000E100E000100140FF00FFFF7B
:1091E00004050000C42400200A4B10B51C680823A5
:1091F000002C0CD0013B002A09D0002807D00068C1
:109200000133047C002C02D1230041744261180018
:1092100010BDC046D0240020F0B51C4B85B01E68A0
:1092200004000D0001920820002E2DD0002C2BD020
:109230000138042928D963690130002B24D0637CCC
:109240000F00012B00D00027FFF700FDC00002AB8C
:109250003618D91D3000FFF7E5FC03000420002B71
:1092600012D001220A491A700A4A00208A585C600A
:109270009A60019ADD605A6180221F6102ABDB793E
:1092800052037370044B5A6005B0F0BDD024002027
:109290000010014004050000FCE100E0134BF7B5AD
:1092A0001C6805000823002C1DD000281BD0426933
:1092B000002A18D000260674FFF7C8FC6B46C000D1
:1092C000DF1D241839002000FFF7ACFC0423B04256
:1092D00009D08022023B03703B7845606370044BE9
:1092E00052035A6033001800FEBDC046D02400204F
:1092F000FCE100E00300A0220321C133FF33D205CB
:109300009B0099500123A1218340C900535070470D
:109310000123A0218340024AC9058B507047C046F3
:109320000C05000070DF704771DF704773DF704716
:1093300074DF704776DF704777DF704778DF7047FC
:109340007ADF70477CDF70477FDF704782DF7047CE
:10935000A9DF704760DF70473CDF704748DF704728
:10936000034B10B5002B01D000E000BFFEE7C04664
:109370000000000070470000037810B5002B0CD1EE
:10938000064B3B211888FFF7D5FF002805D0044B7A
:10939000002B01D000E000BFFEE710BD2028002018
:1093A00000000000034B10B5002B01D000E000BF0F
:1093B000FEE7C04600000000034B10B5002B02D0B2
:1093C000024800E000BFFEE700000000EFBEADDE97
:1093D0001FB51E4B02AC1B78FF2B32D11C4B1B78E8
:1093E000FF2B2ED100236A4669461380194B1B6858
:1093F0001A788A70E522CA704D3A0A7128324A7189
:109400005B88154A934205D006220B701B0A4B70ED
:10941000092006E02000FFF787FF6B4604220B209F
:10942000991C684400F080FA002021002070FFF7AA
:1094300079FF002808D0094B002B01D000E000BFC5
:10944000FEE706220249E3E71FBDC046F9FF03001D
:10945000F8FF030004280020FFFF000000000000C8
:1094600007B5002348221A490E20FEF761FF0028A5
:1094700005D0184B002B01D000E000BFFEE7010033
:109480000822684600F094FA6846FFF763FF002858
:1094900005D0104B002B01D000E000BFFEE70E48C6
:1094A000FEF76AFF002805D00A4B002B01D000E030
:1094B00000BFFEE70948FEF769FF002805D0054B0D
:1094C000002B01D000E000BFFEE7FFF781FF07BDE2
:1094D000BC27002000000000599601007593010090
:1094E00037B50420FFF728FF112301AC23700F4B81
:1094F0001B685D68280000F0A9FA290082B22000EC
:10950000FFF720FF002805D0094B002B01D000E019
:1095100000BFFEE78020FFF711FF002805D0044BB5
:10952000002B01D000E000BFFEE737BD042800207B
:109530000000000010B5054C18220021200000F0AA
:1095400037FA034B1B681B89238210BD08280020B3
:109550000428002010B51C4B8CB01B6803A85A8946
:1095600002809B894380194B1B688380184B1B68C2
:109570000193C380FFF7E4FE002805D0154B002BB4
:1095800001D000E000BFFEE705AC0100142220007E
:1095900000F00EFA104B20001B6801936360F0236B
:1095A0001B03A360032323730C4B63610C4BA36168
:1095B000FFF770FA002805D0064B002B01D000E021
:1095C00000BFFEE70CB010BD042800203C9D010048
:1095D000349D010000000000389D010079930100D6
:1095E0006193010070470000002310B5064A09216D
:1095F0001800FFF791FD002805D0044B002B01D087
:1096000000E000BFFEE710BDD424002000000000F1
:1096100010B50748FFF78AFE082302009A4305D0D9
:10962000044B002B01D000E000BFFEE710BDC04698
:10963000082800200000000010B5FFF779FE08237D
:1096400002009A4305D0034B002B01D000E000BF7D
:10965000FEE710BD00000000038870B50400192B60
:1096600000D19BE021D8112B5ED00BD8102B3ED01F
:10967000554B002B02D0200000E000BF2000FFF778
:1096800041FA70BD132B69D0142BF1D14F4B1888C0
:1096900000231A001900FFF759FE0028E8D04C4BB0
:1096A000002B01D000E000BFFEE7512B4FD00AD8BD
:1096B0001B2B00D181E0502BDAD1464B002BD7D0A9
:1096C00000E000BFD4E7522B58D0552BD0D183797E
:1096D000002BCDD13D4B13211888FFF72BFE00281E
:1096E000C6D03B4B002B01D000E000BFFEE70222BA
:1096F0008388364D2B80384B1A70FFF789FF002383
:1097000028881A001900FFF723FE002805D0304BE7
:10971000002B01D000E000BFFEE7304B002BA7D0AC
:10972000200000E000BFA3E70122284B52421A802C
:10973000FFF782FF0022284B1A70FFF769FF284BC2
:10974000002B00D194E7200000E000BF90E7254BFC
:10975000002B00D18CE700E000BF89E71B4B224AB9
:10976000188800231900FFF7EFFD002800D17FE7DC
:10977000174B002B01D000E000BFFEE7134B188809
:1097800000231A001900FFF7E3FD002800D16FE75E
:109790000F4B002B01D000E000BFFEE78379002BC8
:1097A00000D065E7FFF7D8FD002800D160E7084B3F
:1097B000002B01D000E000BFFEE70C4B002B00D1D6
:1097C00056E700E000BF53E700000000202800201B
:1097D0000000000000000000082800200000000039
:1097E0000000000000000000102000200000000029
:1097F00010B5FFF7B3FD002805D0034B002B01D0B7
:1098000000E000BFFEE710BD00000000094B10B5EE
:109810001860FFF725FEFFF763FEFFF78BFEFFF7EB
:10982000E1FEFFF7E1FEFFF795FE012302485B42F0
:10983000038010BD0428002020280020F0B59DB032
:1098400007000E0015000021382268460EAC00F01B
:10985000AFF838220021200000F0AAF806236A465B
:10986000D370043B002F17D01370002E03D00123B8
:109870006A4605961382002D00D00995210068469E
:10988000FFF758F8002803D000221100FFF78AFDE7
:10989000FFF7BEFE1DB0F0BD2370E6E7002210B555
:1098A00011000120FFF7CAFF10BD000003B471468C
:1098B000490840004900095A49008E4403BC7047DA
:1098C00010B50021040000F0F3F8044B1868C36BD6
:1098D000002B00D09847200000F016FA409D0100B0
:1098E00070B50D4E0D4DAD1BAD1006D00024A3007C
:1098F000F35801349847A542F9D100F007FA084E11
:10990000084DAD1BAD1006D00024A300F358013460
:109910009847A542F9D170BD44240020442400207A
:109920004424002044240020F0B50F2A37D90D002C
:1099300005430C000300AD0735D11500103D2D097E
:109940002E013618103627681F6067685F60A768A9
:109950009F60E7681034DF601033B342F3D10F2407
:1099600001352D01491914404519032C1DD9002337
:10997000CE58EE500433E61A032EF9D80323043CE4
:10998000A4080134A4001A402D190919002A05D091
:109990000023CC5CEC5401339342FAD1F0BD0500B6
:1099A000002AF5D1FAE70500F2E72200F8E7C04601
:1099B000F0B5830746D0541E002A42D0CEB2020032
:1099C000032502E01A00013C3BD3531C16702B42C6
:1099D000F8D1032C2DD9FF220A40150215432A0481
:1099E00015430F2C16D92700103F3F093E01B446FE
:1099F0001E001A0010366644156055609560D560EB
:109A00001032B242F8D10F2201373F01DB19144066
:109A1000032C0ED9261FB608B700BC461A001F1D1E
:109A2000674420C2BA42FCD103220136B6009B191A
:109A30001440002C05D0C9B21C19197001339C4286
:109A4000FBD1F0BD14000300C3E7C04610B504000D
:109A500083070AD00378002B23D0032202E0037887
:109A6000002B1CD001301042F9D102680E4B0F4977
:109A7000D31893430B420FD1043002680A4BD3181A
:109A800093430B4208D104300268074BD318934329
:109A90000B42F1D000E001300378002BFBD1001B1A
:109AA00010BD0020FCE7C046FFFEFEFE80808080E7
:109AB000F0B5DE4657464E464546E0B53F4B87B0CB
:109AC0001B680590180001930F0000F09FF83C4BB5
:109AD0001B6803934933FF330493A422039B520072
:109AE0009E58002E4BD0049B9A4601239B467468D7
:109AF000651E32D4C4235B00994604339C46B444AB
:109B000063460134A4003419B144019302E0043CDB
:109B1000013D22D3002F04D0631CFF331B68BB42DE
:109B2000F5D173682268013BAB4233D00023236038
:109B3000002AECD07368494698465B46AB400968FA
:109B4000194229D1904773684345C6D153461B68D3
:109B5000B342C2D1043C013DDCD21A4B002B0ED0E3
:109B600072683368002A22D1002B20D05246300080
:109B7000136000E000BF53461E68002EB7D10F4BA4
:109B8000186800F045F807B03CBC90469946A246DC
:109B9000AB46F0BD7560CBE72100019880310068CD
:109BA00009680290184205D105989047CBE7B24664
:109BB0001E00E2E708009047C5E7C04640240020A9
:109BC000409D01000000000010B5010000230022AC
:109BD000002000F01FF810BD70B5094B094CE41AC5
:109BE000A41009D0084AA518AD00ED182B68013C57
:109BF0009847043D002CF9D100F08EF870BDC046A6
:109C00004424002044240020FFFFFF3F7047C0464B
:109C10007047C046F0B54E464546DE465746E0B56D
:109C2000364D83B00600286898460F009146FFF72E
:109C3000EDFF334B1C68A4235B00E058002852D092
:109C400043681F2B13DC5A1C0192002E28D1019A65
:109C500002339B0042601F502868FFF7D9FF0020A5
:109C600003B03CBC90469946A246AB46F0BD254B9E
:109C7000002B3DD0C820400000E000BF002837D0B6
:109C8000A42200235200A15843600160A05040323A
:109C9000835004328350013301930023002ED6D029
:109CA0009A00924682444A46882154466250C42211
:109CB0005200914681444A468739994012688B4642
:109CC0000A4394464A466146116084224146520046
:109CD000A150022EBBD102005C468D32FF321168CA
:109CE0000C431460B3E720004D30FF30E050A7E78D
:109CF0002868FFF78DFF01204042B1E74024002093
:109D0000409D010000000000FEE7C046F8B5C046D7
:109D1000F8BC08BC9E467047F8B5C046F8BC08BC05
:109D20009E4670474C504353425F74657374000005
:109D30007C24002090010000008000000000000052
:089D40001820002000000000C3
:089D480078E3FF7F0100000039
:109D50004000FFFF249D010020039001200300002C
:109D60000D07100000000000000000000423002088
:109D70006C230020D423002000000000000000001D
:109D800000000000000000000000000000000000D3
:109D900000000000000000000000000000000000C3
:109DA00000000000000000000000000000000000B3
:109DB00000000000000000000000000000000000A3
:109DC0000000000000000000000000000000000093
:109DD0000000000000000000000000000000000083
:109DE0000000000000000000000000000000000073
:109DF0000000000000000000000000000000000063
:109E00000000000000000000000000000000000052
:109E100001000000000000000E33CDAB34126DE6EF
:109E2000ECDE05000B000000000000000000000058
:109E30000000000000000000000000000000000022
:109E40000000000000000000000000000000000012
:109E50000000000000000000000000000000000002
:109E600000000000000000000000000000000000F2
:04A19000242800205F
:04000003100081392F
:00000001FF
